:10000000002300000002000055380000000000003E
:1000100000000000000000000000000000000000E0
:100020000234E90102200100023BD802310AD2AFBA
:1000300032000002081ED2AF32000002080ED2AF1A
:10004000320000022B460000000000020816E49077
:1000500001BCF0122ABF5010EF122A4512105B00AB
:10006000002710122B2180EBE49001BDF09001BD20
:10007000E0C39405748094804003020B2FE4900148
:10008000BCF0122ABF4003020B26A3E02401FDE4CA
:1000900033FC74332F122B28D3ED9F7480F86C98A7
:1000A0004003020B209001BCE0FF1238D79001BC46
:1000B000E0FF123C0F758A5075B28F902E207401AC
:1000C000F0902E20E030E2F99001BCE0FF900806AD
:1000D00093902E00122A3BE0FCA3E0FDEF122A8948
:1000E000ECF0A3EDF0902E20E4F0758A1075B29339
:1000F0009001BCE0FF123C83122A84E0FCA3E0FDE7
:10010000EF25E02464F582E43401F583ECF0A3EDFF
:10011000F0122A84E0FCA3E0FD90018BE0FAA3E05A
:10012000FBED2BFDEC3AFCA3E0FAA3E0FBC3ED9B57
:10013000FDEC9AFCEF122A89ECF0A3EDF074FFF5C8
:1001400009F50AF50BF50CE4F50DF50EF50FF510B4
:10015000F514F513F512F511122A84E0FCA3E0FD65
:10016000EF75F012A424B1F582E43401F583ECF0CC
:10017000A3EDF0E4F508C3E508940874809480408A
:1001800003020A3A9001BCE0FF122B00122A37E06A
:10019000FCA3E04C6009EF122B00122A3780079075
:1001A00001BCE0122A89E0FEA3E0FF9001BCE0FD63
:1001B000122A2CEEF0A3EFF0ED122A2CE0FEA3E0C1
:1001C000D3950EEE950D4016850D0F850E109001FE
:1001D000BCE0122A2CE0F50DA3E0F50E801A122ADD
:1001E00027E0FCA3E0D39510EC950F400BEF122A0B
:1001F0002CE0F50FA3E0F510122A27E0FCA3E0C3E2
:10020000950AEC9509501385090B850A0CEF122A03
:100210002CE0F509A3E0F50A801A122A27E0FCA3D6
:10022000E0C3950CEC950B500BEF122A2CE0F50B6C
:10023000A3E0F50C9001BCE0122A2CE0FEA3E0FF45
:10024000E4FCFDE5142FFFE5133EFEED3512FDEC59
:100250003511122A6A0508020956AE0DAF0EEFFBE2
:10026000122A56AE0FAF10122A53AE09AF0A122A45
:1002700053AE0BAF0C122A53FC78021210249001DB
:10028000BCE0FD122AD7122A9E122AB4122A7DFF40
:100290004E7010122AD6F583E0FAA3E0FBEAFEEBDB
:1002A000FF8019EF25E0FFEE33FE122AD6122AF95D
:1002B0002FFFEC3EFE7C007D03120D289001BCE078
:1002C000FD122AB5122A9E122A734E700B122AB4FE
:1002D000122A7DFFED122A959001BCE0FF25E02453
:1002E0005AF582E43401122AF9FDECC0E0EDC0E0D9
:1002F000EF122AB5122A7DFFE4FCFD9001C912100D
:100300004F9001BCE09001CDF0D0E0FDD0E0FCE4E6
:10031000FF1210D79001BCE0FD122A95ED122A457C
:10032000C083C082121043122A732400FFEE34E807
:10033000FE3395E0FDFC120EC5D082D08312104F23
:10034000122B210208629001BDE004F002084D90DA
:100350002E23E4F09001BCF0122ABF4003020CEA05
:10036000EF122A45C083C082121043E8C0E0E9C002
:10037000E0EAC0E0EBC0E09001BCE02433122B289F
:10038000FBE4FAF9F8122A41121037123A0FD0E0C2
:10039000FBD0E0FAD0E0F9D0E0F8120EC5D082D060
:1003A0008312104F122A41121037E47B507AC3F99E
:1003B000F8C3120FFD500A122A4112105B0000C34D
:1003C000509001BCE0FF122A45121043E833500B55
:1003D000EF122A4512105B000000009001BCE0FF04
:1003E000122ACC122AF94C7009EF122A4512103742
:1003F000802C9001BCE0122ACC122A7DFF7C007D6B
:10040000021210AAECF8EDF9EEFAEFFB122A4112F3
:100410001037120EC5E47B03FAF9F8120F6B900146
:10042000BCE0FD122ACCF583EEF0A3EFF0122B0C0A
:10043000122A7D4E700EED122ACC122A7DFF122B4D
:100440000C122A9E9001BCE0FF122AA6C083C08233
:10045000121043EF122A74FFE4FCFD120EC5D08285
:10046000D08312104F9001BCE0FF122AE1F583E423
:1004700075F001120DB3EF122AE1122A7DFFD39419
:100480000AEE94004034EFFBEEFAE4F9F89001BC78
:10049000E0122AA6121037120F6B9001BCE0FD1279
:1004A0002B32122A9EED122AE1F583E4F0A3F0ED3F
:1004B000122AA612105B0000000090012CE07002CE
:1004C000A3E070409001BCE0FD122A74FFED122BF6
:1004D00032122AF9FD123C289001BCE0FD122B3C9F
:1004E000122A9EED122B3C122A7DD39406EE940024
:1004F000401290012C7407F0A374D0F0A3E475F0BF
:1005000001120DB3122B21020B3822BB0106898286
:100510008A83E0225002E722BBFE02E32289828A1C
:1005200083E49322BB010689828A83F0225002F77A
:1005300022BBFE01F322EF8DF0A4A8F0CF8CF0A433
:1005400028CE8DF0A42EFE22BC000BBE0029EF8D1C
:10055000F084FFADF022E4CCF875F008EF2FFFEE49
:1005600033FEEC33FCEE9DEC984005FCEE9DFE0F57
:10057000D5F0E9E4CEFD22EDF8F5F0EE8420D21CB2
:10058000FEADF075F008EF2FFFED33FD40079850FA
:1005900006D5F0F222C398FD0FD5F0EA22C2D5ECC1
:1005A00030E709B2D5E4C39DFDE49CFCEE30E715CD
:1005B000B2D5E4C39FFFE49EFE120D28C3E49DFD67
:1005C000E49CFC8003120D2830D507C3E49FFFE4B0
:1005D0009EFE22C5F0F8A3E028F0C5F0F8E58215EC
:1005E0008270021583E038F022BB010A89828A8377
:1005F000E0F5F0A3E022500687F009E71922BBFEE0
:1006000007E3F5F009E3192289828A83E493F5F080
:1006100074019322BB0110E58229F582E5833AF546
:1006200083E0F5F0A3E0225009E92582F886F0087E
:10063000E622BBFE0AE92582F8E2F5F008E222E5AF
:10064000832AF583E993F5F0A3E99322BB010DC555
:100650008229C582C5833AC583020DB35011C58274
:1006600029F808E5F026F618F5F0E58236F622BB03
:10067000FE11C58229F808E225F0F5F0F218E235FE
:1006800082F222F8E58229F582E5832AF583740156
:100690009325F0F5F0E4933822BB010A89828A831E
:1006A000F0E5F0A3F0225006F709A7F01922BBFEEF
:1006B00006F3E5F009F31922F8BB0111E58229F5EB
:1006C00082E5833AF583E8F0E5F0A3F0225009E9EA
:1006D0002582C8F608A6F022BBFE09E92582C8F2E9
:1006E000E5F008F222EF2BFFEE3AFEED39FDEC3893
:1006F000FC22C3EF9BFFEE9AFEED99FDEC98FC22E5
:10070000E88FF0A4CC8BF0A42CFCE98EF0A42CFC98
:100710008AF0EDA42CFCEA8EF0A4CDA8F08BF0A416
:100720002DCC3825F0FDE98FF0A42CCD35F0FCEB75
:100730008EF0A4FEA9F0EB8FF0A4CFC5F02ECD393A
:10074000FEE43CFCEAA42DCE35F0FDE43CFC227531
:10075000F008758200EF2FFFEE33FECD33CDCC33A2
:10076000CCC58233C5829BED9AEC99E58298400C0A
:10077000F582EE9BFEED9AFDEC99FC0FD5F0D6E4E8
:10078000CEFBE4CDFAE4CCF9A88222B800C1B900CE
:1007900059BA002DEC8BF084CFCECDFCE5F0CBF92F
:1007A0007818EF2FFFEE33FEED33FDEC33FCEB3327
:1007B000FB10D703994004EB99FB0FD8E5E4F9FA55
:1007C000227818EF2FFFEE33FEED33FDEC33FCC93A
:1007D00033C910D7059BE99A4007EC9BFCE99AF9CD
:1007E0000FD8E0E4C9FAE4CCFB2275F010EF2FFF3C
:1007F000EE33FEED33FDCC33CCC833C810D7079BA6
:10080000EC9AE899400AED9BFDEC9AFCE899F80F08
:10081000D5F0DAE4CDFBE4CCFAE4C8F922EB9FF59D
:10082000F0EA9E42F0E99D42F0EC6480C864809852
:1008300045F022EB9FF5F0EA9E42F0E99D42F0E898
:100840009C45F022E8600FECC313FCED13FDEE13A2
:10085000FEEF13FFD8F122E0FCA3E0FDA3E0FEA32E
:10086000E0FF22E0F8A3E0F9A3E0FAA3E0FB22EC2A
:10087000F0A3EDF0A3EEF0A3EFF022A8828583F0C1
:10088000D083D08212107212107212107212107273
:10089000E473E493A3C583C5F0C583C8C582C8F0DB
:1008A000A3C583C5F0C583C8C582C822A42582F527
:1008B00082E5F03583F58322E0FBA3E0FAA3E0F9BB
:1008C00022EBF0A3EAF0A3E9F022EC8EF0A4CCC571
:1008D000F0CCCDF8EFA4CEC5F02DFDE43CFCE8A4AF
:1008E0002EC8C5F03DFDE43CFCEFA4FFE5F028FE7A
:1008F000E43DFDE43CFC229001C7ECF0A3EDF09058
:1009000001C6EFF01233E7C083C0829001CDE0D082
:1009100082D0831233E1E070461233D81233F5C02F
:1009200083C0829001CDE0D082D0831233E11210D7
:1009300037E4FBFAF9F8C312101360231233D8120C
:1009400033FFC083C0829001CDE0D082D0831233C8
:10095000E1121037E4F8C3121013600302123B12C5
:10096000341CC39001C8E09FFF9001C7E09E1213A2
:10097000FCC083C0829001CDE0FCD082D0831233D2
:10098000E1EEF0A3EFF0ED1233E7123433E0605004
:100990009001C6E0FF12343AC083C0829001CDE0DE
:1009A000D082D0831233E1E0FCA3E0FDEF75F005C7
:1009B000A4249CF582E4343CF583E493FE74019313
:1009C000FFD3ED9FEC9E40181233D81233EBC08357
:1009D000C0829001CDE0D082D0831233E17405F063
:1009E00012341C1233D81233F5C083C0829001CD6B
:1009F000E0D082D0831233E112104F1233D8123478
:100A000009C083C0829001CDE0D082D0831233C16F
:100A10001233FFC083C0829001CDE0D082D0831218
:100A200033E112104F9001C6E0FF1233E7C083C0DC
:100A3000829001CDE0FED082D0831233E1E0D394E6
:100A40000074809480400EEF1233E775F00EEE12C2
:100A5000108CE014F09001C90213F81233D812334D
:100A6000F5C083C0829001CDE0D082D0831233E103
:100A70001210379001CE12104F1233D81233FFC02C
:100A800083C0829001CDE0D082D0831233E1121076
:100A9000379001D21234131233D8123448C083C0B5
:100AA000829001CDE0D082D0831233E1E0F9F812D8
:100AB0001024EFFBEEFAEDF9ECF8123416120ED218
:100AC0009001D612104F9001CE1210379001C9122A
:100AD0001043120EC59001D6121043120EC51234E7
:100AE0005212341C1233D81233F5C083C0829001E5
:100AF000CDE0D082D0831233E11234131233D812F6
:100B000033FFC083C0829001CDE0D082D083123306
:100B1000E1123413ECC0E0EDC0E0EEC0E0EFC0E065
:100B20001233D8123409C083C0829001CDE0D08244
:100B3000D0831233E1E0FEA3E0FBEEFAE4F9F8D053
:100B4000E0FFD0E0FED0E0FDD0E0FC120F6B1234ED
:100B5000529001C6E0640160030213F512341CEFE9
:100B6000FBEEFA123416C3EF9BFFEE9A1213FCC091
:100B700083C0829001CDE0FCD082D0831233E1EEBD
:100B8000F0A3EFF0ED12343A123433E0FEA3E0FFAD
:100B90009001C6E0FB75F005A4249AF582E4343C8C
:100BA000F583E493FC740193FDD3EF9DEE9C4065C7
:100BB00012341CEB75F00EA41233F5C083C0829082
:100BC00001CDE0D082D0831233E112104F1233D81E
:100BD000123409C083C0829001CDE0D082D083124C
:100BE00033C11233FFC083C0829001CDE0D082D0E8
:100BF000831233E112104F1233D81233EBC083C08B
:100C0000829001CDE0D082D0831233E17405F012DE
:100C1000341C1234529001D212103722FE123C774B
:100C20009001C6E0FD75F00EA42403F582E43402C1
:100C3000F583229001B9121B97400302173F121A45
:100C4000B4FF121A4B121BA7121A47120DF4D39DB0
:100C5000E5F09C403F121AB4121A4B121BA7121A4D
:100C600047121BF29430EE9475400C9001BA7475E3
:100C7000F0A37430F08010121AB4FF121A4B121B3A
:100C8000A7121A47121B4B9001B9E0121BB1F58352
:100C9000E40214CB121A2A121BF29410EE9427408D
:100CA0000C9001BA7427F0A37410F08006121A2A6F
:100CB000121B4B121ABF9001B9E0FD121BB1121AA0
:100CC000DB30001DED121BB1121A62D3942CEE948E
:100CD000014014121B5CF5837427F0A37410F0809C
:100CE00006121B5C121AADE49001BAF0A3F0121ABE
:100CF0008CE0605B121B67D39400EC6480948040AE
:100D000020EF25E02422121AD4D3ED9FEC9E40114F
:100D10009001B9E0121BBBF583E4F0A37464F0808A
:100D2000229001B9E0FF121BBB121A73D39400EC9E
:100D30009400400F900105121A47120DF4FFE5F0E0
:100D4000121C069001B9E0121BE27401F0800F1230
:100D50001AEFF5837403F0A374E8F0123B65D390A7
:100D600001BBE094009001BAE064809480500302DB
:100D700016F5E0FEA3E0FF900105121AB7121A4B18
:100D8000121BFFEE3395E0FDFCE47BB87A88F9F89E
:100D9000C3120FFD500A9001BA7488F0A374B8F022
:100DA00030003C121A8CE07016EF25E0242CF8E697
:100DB000FC08E6FD121ABFC39DEE9C5063801A909A
:100DC00001B9E025E02422F8E6FC08E6FDA3E0FEF8
:100DD000A3E0FFC39DEE9C50477C007DC8803B9004
:100DE00001B9121B19121A73D39400EC9400500825
:100DF0009000F1E064207028EF25E02422121AD43C
:100E0000121B67C39FEC9E5017ED9400EC64809416
:100E100080400D121ABF7C007D0A120D7D121C0548
:100E2000121A8CE06074EF121AF4121A624E7011EA
:100E30009001B9A3E0FCA3E0FD121740121C05804D
:100E40002F121A55FF121B67123C28D3EF9432EE73
:100E50009400401C121AEF121A73D394C8EC940039
:100E6000400EEF121AF4F58374FF75F09C120DB367
:100E7000121A55FF7C007D071210AAECF8EDF9EE6E
:100E8000FAEFFB121ABFEE3395E0FDFC120EC5E43B
:100E90007B08FAF9F8120F6B8003121ABF9001B9A0
:100EA000E025E02434F582E43401121ADB121A55ED
:100EB000FFD39405EE9400400EEF9410EE94005092
:100EC000069001BAEE80159001B9121B3F121A73F9
:100ED000FDEF121A592DFFEE3C9001BAF0A3EFF08E
:100EE000D39001BBE094309001BAE0648094F54067
:100EF000077475F0A37430F0E5DB54047061121AC6
:100F0000BF90010E121AB7FD121A4B121BFFEF24ED
:100F1000A8FFEE8037E5DB54047044900105121AF7
:100F2000B7FF121A4B121C54EF121B41121A62FF28
:100F300090010E121AB7FD121A4B121BFF75F00228
:100F4000ED121A4E120DF424A8FFE5F03461FE9064
:100F5000010B12109875F002ED121A4E121BFF22AF
:100F60009001BCEFF0A3ECF0A3EDF0EF123240E003
:100F7000FEA3E0FF123C28D3EF9432EE9400401C15
:100F800012321012105B000000001231DCE4F0128B
:100F9000325A12323CEEF0A3EFF080431231CBE034
:100FA000FEA3E0FFD39400EE940040339001BDE037
:100FB000FCA3E0FDD3EF9DEE9C400B9001BCE01242
:100FC0003203E04401F09001BCE0FF1231CFE0FABF
:100FD000A3E0C39DEA9C5007123202E04402F09065
:100FE00001BCE0123215C083C08212104312325A83
:100FF000E4FCFD120EC5D082D08312104F9001BCCC
:10100000E0FF123263E475F001120DB3EF75F007E3
:10101000A4246EF582E4343CF583E493FE740193DA
:10102000FF9001BCE0FDC454F024E2F582E43401F9
:10103000F583E0FAA3E0C39FEA9E50030219C0EDD6
:10104000123263E0FEA3E0FFFBEEFAE4F9F8900150
:10105000BCE0123215121037120F6B9001BF121044
:101060004F1231CBE0FEA3E0FFEEC0E0EFC0E01294
:101070003270EFFDEEFCD0E0FFD0E0FE123C289095
:1010800001C3EEF0A3EFF09001BCE0FD75F007A402
:101090002469F582E4343CF583C37401939FE4939F
:1010A0009E401FED1231CFE0FEA3E04E6014900190
:1010B000BCE0FB12324DE0FEA3E0C394B8EE940B0B
:1010C00050219001BCE0FF1231CFE0FCA3E04C7056
:1010D00008EF12324DE4F0A3F01232701231CBEE71
:1010E00002196AEB600764016003021970E4900161
:1010F000C5F09001C3E0FEA3E0FFD39450EE94004E
:101100004006A37408F080329001BCE0123203E084
:1011100064036026D3EF943CEE940040089001C530
:101120007402F08015D39001C4E094329001C3E0C2
:10113000940040069001C57401F01231CBE0FEA38B
:10114000E0FFE4FCFD123276D3121013401190013F
:10115000C5E0FF1231CBE48FF0120DB30219A6D314
:101160009001C4E094509001C3E0940040581231C3
:10117000CBC083C082E0FEA3E0FF9001C5E0FDC3C9
:10118000EF9DFFEE9400D082D083F0A3EFF0803685
:101190001231CBE0FEA3E0FF4E700D123276EBFF72
:1011A000EAFEE9FDE8FC80167C007D071210AA1219
:1011B0003276120EC5E47B08FAF9F8120F6B123181
:1011C000CBEEF0A3EFF012321012105B0000000023
:1011D0001231DCE4F012327012323CEEF0A3EFF088
:1011E0001231CBE0FCA3E0FDD39400EC9400405618
:1011F00012325A123C289001BCE075F007A4246B0F
:10120000F582E4343CF583D37401939FE4939E40CC
:101210000F9001BCE0FF1231CF123222E4F08026A1
:101220009001BCE0FF75F007A4246DF582E4343C26
:10123000F583E493FE12322EE0C39E50091231CBA7
:10124000123222E004F012325A2290010212109857
:101250009001B9E0FF75F002A4F58285F083120DCC
:10126000F4FDACF0900108121098EF75F002A4F5AF
:101270008285F083229001B9E025E02434F582E4F0
:101280003401F583E0FEA3E022EF25E02400F5829F
:10129000E43401F583E0FCA3E0229001B9E075F0AD
:1012A0000AA4243DF582E43401F583229001B9E0DB
:1012B000FF243CF582E43401F58322EE8FF0120E18
:1012C00098ED75F00AA42443F582E43401F583E433
:1012D000F0A3F0229001081210989001B9E022903A
:1012E00001BAE0FEA3E0FF2275F008A42424F8E58B
:1012F0000825E028F8E6FE08E6FF22F583EEF0A3D5
:10130000EFF02275F00AA42441F582E43401229022
:1013100001B9E0FF25E02421F582E43402229001A6
:10132000B9E025E02470F582E434012212103790F0
:1013300001081210989001B922E0FF25E0241FF562
:1013400082E43402229001BAE0FFC39401748094D5
:101350008022EF25E02468F582E43401F58322E061
:10136000FF25E02430F582E4340122120DF4C39D00
:10137000FEE5F09C9001BAF0A3CEF022ED25E0242A
:1013800097F582E43401229001BAE0FCA3E0FD224B
:1013900025E02472F582E434012225E02460F58200
:1013A000E434012225E02462F582E4340122F5834D
:1013B000E475F001020DB3EFF0D3900218E0940051
:1013C000900217E0940022120DF4FDACF09001029F
:1013D0002225E02495F582E434012225E0241DF540
:1013E00082E43402229001B9E0FF25E0249FF582D7
:1013F000E4340122FDEF25E0246EF582E43401F5AA
:10140000832224B7F582E43401F58322EC8DF002C7
:101410000E98120DF4C39DFFE5F09CFED3EF22EE73
:101420008FF0020E98EE9001BAF0A3EFF022E0FDEB
:1014300025E02400F582E434012275F00AA4244555
:10144000F582E434012275F00AA42443F582E434E1
:1014500001229001051210989001B9E0FF2290023C
:10146000197403F0A37420F022EB25E0245EF582CA
:10147000E4340122E4F5F0020E98C3E50894037405
:101480008094802225E02432F582E434012275F034
:101490000202108CE49001BAF0A3F01226A4D390BB
:1014A0000218E09400900217E094004003021EB678
:1014B00090017D12104390011DE0FEA3E0FFE4FCCB
:1014C000FD120EC590017D12104F900181E475F060
:1014D00001120DB3C3900184E09464900183E09401
:1014E000005003021D4390017D121037ECC0E0ED67
:1014F000C0E0EEC0E0EFC0E0900181E0FEA3E0FBC1
:10150000EEFAE4F9F8D0E0FFD0E0FED0E0FDD0E064
:10151000FC120F6B90017D12104F90017D1210375D
:1015200090017BEEF0A3EFF0A312105B000000002F
:10153000E4900181F0A3F0A3F0A3F0900217E07013
:1015400002A3E0701E9001B9F01228BA5015EF12F4
:1015500028CD1227F54E7003121EB79001B9E00492
:10156000F080E6E49001B9F01228BA4003021EB6FA
:10157000743C2FF582E43401F583E0FF6023900191
:10158000B9E0FE12285C1228EE4C701590011DE0A7
:10159000FCA3E0FDEE12285CF583ECF0A3EDF080F7
:1015A00022EF701F1228C79001B9E0122803C394DC
:1015B00096E5F09400500C12285712285012286615
:1015C0001228509001B9E012285C1227F5FF4E70E6
:1015D00003021EAD90011DE0FCA3E0FDC3EF9DFFE3
:1015E000EE9CFE123C779001BAEEF0A3EFF01228C9
:1015F000571228EE90011D1228D740139001BAE02F
:10160000FCA3E0FDEF122813ECF0A3EDF0801E9098
:1016100001BAE0FEA3E0FFD394C8EE9400400EEEC2
:1016200013FEEF13FF12280FEEF0A3EFF09001B9B5
:10163000E0FF122813E0FCA3E0D3940AEC940050DE
:1016400003021EAD1228C775F002EF122806D394CC
:1016500010E5F0942740429001B9E0FB1228671290
:1016600027F5C39428EE942350639001B9E0FA243F
:1016700033F582E43402F583E075F012A4FFAEF096
:10168000EA122813E0FCA3E0FD120D16EB12286706
:10169000F583EEF0A3EFF080341228C79001B9E093
:1016A000FF122803D394E8E5F09403402012286643
:1016B0001227F5C39458EE9402501212280FE0FC42
:1016C000A3E0FD122866F583ECF0A3EDF09001B9DC
:1016D000E004F0021D48229001BCEFF0E0FF243C42
:1016E000F582E43401F583E07003021F81EF1228D4
:1016F000321227F54E702690017BE0FEA3E0FF90AA
:1017000001BCE0FD122832F583EEF0A3EFF01227C2
:10171000FC12281FE5F0F0A3EFF0021FA19001BC1E
:10172000E01228321227F5FF90017BE0FCA3E0FDD8
:10173000123C2890018F1210989001BCE0FD1228F5
:101740008AEE8FF0120E9874752D122878E07031A1
:1017500090018F1227FFC39406E5F09400500E12FB
:1017600027FC12281FE5F0F0A3EFF08014E4FFEF50
:101770001228BF500C74752F1228787401F00F8056
:10178000EE12282D1228EE90017B1228D7400A7401
:10179000762F1228A7E4F080281228A17401F08087
:1017A0002012282D122850EF122821E4F0A3F07403
:1017B000752F122878E4F0EF12284712283C1228DF
:1017C00050122871E070030220F61227EBD3940028
:1017D000EE940050030220F61228C79001BCE0FDF1
:1017E000122803FFAEF0122820E0FCA3E0FD123C1B
:1017F000289001BDEEF0A3EFF0900193EEF0A3EF7F
:10180000F01227D3D39DEE95F0400CD39001BEE0AB
:10181000945A12289A50151227D3C39DEE95F05072
:10182000569001BEE0949612289A404B122871E41B
:10183000F0EF1228321228501228C7EF122803FFA7
:101840009001BCE0FD122821E0FAA3E0C39FEA95D5
:10185000F0500EED1228CDF583E4F0A374C8F080AB
:10186000109001BCE01228CDF5837401F0A3742C14
:10187000F01228A1E4F0221227D3D39DEE95F04078
:101880004FD312289440499001BCE012283D122702
:10189000F5C39470EE9417503712288074FF75F0DA
:1018A000F8120E2C12283C1228F51228AF1227F538
:1018B000FFC394E8EE940350171228E3400F122858
:1018C000B0F58374FF75F0F8120DB380031228474A
:1018D0001227D3C39DEE95F0503C12289440371246
:1018E0002880E475F008120E2C1228AF1228F51289
:1018F000283C1227F5FFC39470EE94175018122855
:10190000E3400D12283DF58374FF75F0F8020DB326
:1019100012283D122850229001B9EFF0A37402F072
:10192000A374BCF0D390019AE09400900199E094E4
:1019300000400C900102121B12121A33121BEC9081
:101940000217E07002A3E0600B9001BAE4F0A37408
:1019500064F0800B90001AE0641170037420F09022
:1019600001B9E0FB121A91E0601A9001B9E0FA1295
:101970001A7E12105B00000000EA121AE3121AAD80
:10198000EB022294121A7AC083C082121043E8C07C
:10199000E0E9C0E0EAC0E0EBC0E0900102121B12F7
:1019A000E0121A4B120DF4FFAEF0E4FCFDD0E0FBA8
:1019B000D0E0FAD0E0F9D0E0F8120EC5D082D083A2
:1019C00012104F9001B9E0FF121AE3121B8EEF12B2
:1019D0001C1A121A62FF9001BAE0FCA3E0FDC3EFEB
:1019E0009DEE9C500302229A121A7AC083C0821282
:1019F0001037ECC0E0EDC0E0EEC0E0EFC0E09001D9
:101A0000B9E0121AE3121A62FBEEFAE4F9F8D0E038
:101A1000FFD0E0FED0E0FDD0E0FC120F6BD082D012
:101A20008312104F121B0FE0121A4B120DF42432C6
:101A3000FFE435F0FEE4FCFD121A7A121043D312D3
:101A400010134040900217E07002A3E0703690013E
:101A5000B9E0FF121BE2E0702B9001B9E0FE121C0E
:101A600026121B8EEE121C26121A73D39406EC94C7
:101A7000004027EF121A7E121B0CE0FD121A4B12C7
:101A80001A9B8016121A7A121B0CE0FD121A4B12C6
:101A90001A9B74B72D121BE4E4F09001B9E0FB121D
:101AA0001A7E12105B00000000EB121AE3121AAD4E
:101AB0009001B9E0121C1A121AAD229001B9EFF090
:101AC000121B02121A62FFC39404EE9400502A9073
:101AD00001B9E0121A6AFD121B32C083C082900164
:101AE000B9E0FFD082D083121C6EECF0A3EDF0EFD2
:101AF000121B02121B8E0223AA9001BE7401F090E9
:101B000001BEE0FFC39404748094805038121B32ED
:101B1000C083C0829001B9E0FED082D083121C6ED7
:101B2000E0FCA3E0FDEF25E02466F582E43401F556
:101B30008375F002EE12108CECF0A3EDF09001BE74
:101B4000E004F080BA9001B9E0121A91E06003025B
:101B5000239A9001021210989001B9E0FD121A4BDD
:101B6000120DF4FFAEF0ED121A6AFD123C28C3EF1D
:101B70009428EE940050439001B9121C0E121A6280
:101B8000FF900108121098ED121A4B120DF4FDACE3
:101B9000F0123C28C3EF9414EE9400500590010815
:101BA00080039001021210989001B9E0FF121A4BC5
:101BB000120DF4121BD4E5F0800C9001B9E0FF1275
:101BC0001A6A121BD4ECF0A3EDF09001BA12105B6C
:101BD00000000000E49001BEF0121AFE121A62FF2B
:101BE0009001BEE0FDD3EF9DEE940040359001BA28
:101BF0001210439001BEE0121B33C083C0829001DB
:101C0000B9E0D082D083121C6EE0FEA3E0FFE4FCBA
:101C1000FD120EC59001BA12104F9001BEE004F003
:101C200080B79001BA121037ECC0E0EDC0E0EEC012
:101C3000E0EFC0E0121AFE121A62FBEEFAE4F9F8C5
:101C4000D0E0FFD0E0FED0E0FDD0E0FC120F6B90C2
:101C500001BA12104F9001BA021037D3900218E067
:101C60009F900217E09E400AA3E09FF0900217E0C9
:101C70009EF090021C12387690021BE09C400CA350
:101C8000E09FF090021BE09EF08002D28AD3900287
:101C90001AE09F900219E09E400AA3E09FF0900294
:101CA00019E09EF01238385003123870D390021E9B
:101CB000E09F90021DE09E400AA3E09FF090021D6D
:101CC000E09EF0D3900220E09F90021FE09E400A29
:101CD000A3E09FF090021FE09EF0D3900222E09FCD
:101CE000900221E09E400AA3E09FF0900221E09E36
:101CF000F0D3900198E09F900197E09E400AA3E006
:101D00009FF0900197E09EF0D3900224E09F900214
:101D100023E09E400AA3E09FF0900223E09EF01291
:101D200038465003123870D3900186E09F900185A9
:101D3000E09E400AA3E09FF0900185E09EF09001B4
:101D400067123876900166E09C400AA3E09FF0900D
:101D50000166E09EF0D390019AE09F900199E09E89
:101D6000400AA3E09FF0900199E09EF01238545091
:101D7000031238701238625003123870D390012D5C
:101D8000E09F90012CE09E400AA3E09FF090012C80
:101D9000E09EF0227A0079007DFF12269C7A01797C
:101DA000007DB712269C7B017A0279167D107C009B
:101DB000123C3E902DE0E493900001F090000474FA
:101DC00011F0A37422F0A37433F0902DE2E4939009
:101DD0000012F0902DE3E493900014F09000FB7457
:101DE00001F090004A7411F09000F114F09000247A
:101DF000F0A37420F07B017A00793E90010212106A
:101E0000A17A0079429001081210A17A00794690D7
:101E100001051210A17A00793290010B1210A17AFB
:101E200000793A90010E1210A17A007936900111D2
:101E30001210A17A00796090011F1210A17A007926
:101E40008090018F1210A17A00790A900139121046
:101E5000A17A00791B9001361210A17A00792A909C
:101E600001141210A17A0079269001171210A17A9C
:101E700000792E90011A1210A1900114121098E40A
:101E800075F0C8120E79900117121098E475F0647D
:101E9000120E7990011A121098E475F096120E79CC
:101EA000752C00752DC87522007523969002177445
:101EB00007F0A374D0F0E4900216F0227B017C00BE
:101EC000123C3E22758D20438D20538D7FE4F5B268
:101ED00075B6FF75B7FF75B2A243B20153A8FB53A5
:101EE0008B7F758B10438B08E58B20E7030080F810
:101EF000538B7F758B11438B08E58B20E7030080A4
:101F0000F8900231E5B5F0A3E5B4F0758B01E4F586
:101F1000B27F02FE12243B123BD8E4F58D123C8EB8
:101F2000AEF09001B5EEF0A3EFF090011DE070026D
:101F3000A3E07003022795120DC9FFC390011EE0B4
:101F40009FFF90011DE095F0FE123C77D3EF940ABD
:101F5000EE648094804023123C8EC390011EE09F6B
:101F600090011DE095F05006E475F00180079001A6
:101F70001D74FFF5F0120DB3804390011DE0FEA328
:101F8000E0FF7C007D031210AAECC0E0EDC0E0EEA3
:101F9000C0E0EFC0E0123C8EAEF0E4FCFDD0E0FB10
:101FA000D0E0FAD0E0F9D0E0F8120EC5E47B04FAF4
:101FB000F9F8120F6B90011DEEF0A3EFF07803908B
:101FC000011DE0FEA3E0C333CE33CED8F9FF7C0081
:101FD0007D64120D2890018BEEF0A3EFF0A3E0706A
:101FE00002A3E0700D90018BE0FFA3E0A3CFF0A36C
:101FF000EFF0229001051210989001BCE0FF75F0FF
:1020000002A4F58285F083120DF4FDEF25E024791A
:10201000F582E43401F583E0FEA3E022900105128D
:102020001098ED75F002A4F58285F083020DF4900E
:1020300001B9E025E0249DF582E43401F58322FF17
:10204000ED25E02479F582E43401F583229001BC8A
:10205000E0FF25E02477F582E4340122EF25E02437
:1020600089F582E434012225E02487F582E43401F5
:10207000F583E4F0A3F0229001B9E0FF25E0249B72
:10208000F582E4340122EF25E0249FF582E4340157
:10209000229001BCE0FF2475F582E43401F583222F
:1020A0009001081210989001BCE075F002A4F5822E
:1020B00085F083229001BEE094149001BDE094006D
:1020C000229001BCE02476F582E43401F58322EF0E
:1020D00025E02487F582E43401229001B9E0FFC3B2
:1020E0009401748094802290010502109825E024C8
:1020F00085F582E4340122FDE0FAA3E0FBD3ED9BF9
:10210000EC9A22EF9408EE94009001BCE022F58353
:10211000E0FCA3E022F583E475F008020DB3900122
:10212000BFEFF0902E22E0FF9001C3E4F0A3EFF0A8
:10213000758A50902E227401F09001BFE012377220
:102140007404F0A3E4F09001C0F09001C0E0FFC37C
:10215000940D748094804003022A1AEFF87E02E402
:10216000088006CEA2E713CE13D8F8FF9001C1EE87
:10217000F0A3EFF04E70079001C1F0A304F0902E91
:10218000207401F0902E20E030E2F99001BFE0FFD2
:10219000902E00123775E0FCA3E0D394FEEC940778
:1021A0004040123798E0FEA3E0FF9001C1E0FCA39D
:1021B000E0FDEF2DFFEE3CFEC3EF94FFEE940790A1
:1021C00001BFE075F002902E10500B12108CEC8DB8
:1021D000F0120DB3805412108C7407F0A374FFF04A
:1021E00080489001BFE0FF123772E0FCA3E0FD9051
:1021F00001C1E0FAA3E0FBD3ED9BEC9A402112373A
:1022000098C083C082C3A3E09BFF0582D5820215DC
:10221000831582E09AD082D083F0A3EFF0800B90F8
:1022200001BFE0123772E4F0A3F0902E20E4F0F545
:102230008D9001C0E004F002292A9001C3A3E09030
:102240002E22F0758A10229001BCE0FF75F012A4D6
:1022500024A1F582E43401F583E50875F00202104B
:102260008C9001BCE025E025E024C2F582E4340135
:10227000F58322CBEFCBEEFAC3E5149BFFE5139A6F
:10228000FEE5129400FDE51194008F148E138D125B
:10229000F51122ED25E0245AF582E43401F583E0BE
:1022A000FEA3E0229001BCE0FF25E024BEF582E41D
:1022B0003401F5832225E0245AF582E43401F583C4
:1022C000EEF0A3EFF02225E025E02426F582E434A9
:1022D00001F58322ED25E02456F582E434012290B5
:1022E00001BCE0FFC39401748094802225E0246047
:1022F000F582E4340122ED25E024B3F582E43401D3
:102300002225E0242AF582E4340122F583E4932493
:1023100020F582E4342EF58322F583E0FCA3E0224D
:1023200075F012A424A3F582E4340122ED25E02403
:1023300052F582E4340122EF90080693900803934B
:10234000229001BCE004F022F582E43402F583E03F
:10235000FF2225E02424F582E434012225E0242212
:10236000F582E4340122C0E0C0F0C083C082C0D056
:10237000E8C0E0D2AFD3900218E09400900217E0DA
:102380009400400312382AD390021CE0940190027A
:102390001BE09400400512382A8002D28AD39002B2
:1023A0001AE09400900219E09400400312382A12B7
:1023B00038385003123831D390021EE09400900256
:1023C0001DE09400400312382AD3900220E09400CC
:1023D00090021FE09400400312382AD3900222E0BA
:1023E0009400900221E09400400312382AD3900117
:1023F00098E09400900197E09400400312382AD3AB
:10240000900224E09400900223E0940040031238EC
:102410002A1238465003123831D3900186E09400D6
:10242000900185E09400400312382AD3900167E0C0
:102430009401900166E09400400312382AD3900181
:102440009AE09400900199E09400400312382A1217
:10245000385450031238311238625003123831D3D5
:1024600090012DE0940090012CE09400400312387C
:102470002AD0E0F8D0D0D082D083D0F0D0E0329013
:1024800001B9121B974003022D743000429001B92C
:10249000E0121B5D121A624E9001B96019E0FF252F
:1024A000E0242CF8764E087620EF25E02422F876FA
:1024B0001F0876408045E0FF25E0242CF8760508CB
:1024C00076DCEF25E02422F87605087614802C12BD
:1024D0001BC5121A7324C8FDE43CF8EF25E0242C38
:1024E000C8F608EDF6121BC5121A732496FDE43CDB
:1024F000F8EF25E02422C8F608EDF6121C32121A75
:102500004B120DF4FDEF25E0242C121AD4C3ED9FDD
:10251000E5F09E50249001B9E0121A91E06031126A
:102520001C32121A4B120DF4FDEF25E02422121A70
:10253000D4C3ED9FE5F09E40179001B9121B19120C
:102540001A734C703A743C2F121A937401F0802F56
:102550009000F1E064209001B97009E0121B1B1299
:102560001AAD800CE0121B1BF583E4F0A374C8F0D5
:102570009001B9121A8FE4F0EF121BBB121AAD9042
:1025800001B9E0121A91E06003121C3E90013CE098
:1025900090004BF02253A87F123BF4122574123B9B
:1025A0003B12080843A880E4F58D12357890021696
:1025B000E014601614601E24FE6030240470E812DB
:1025C000327C9002167401F080DD122F34900216D6
:1025D0007402F080D21238811235FD900025E0643B
:1025E0001070C49002167404F080BC1239C79000B9
:1025F00025E0641060B19002167401F080A900001B
:102600000200AB2374AA7583F5758255A5745575C0
:1026100083FA7582AAA574A57583F5758255A522DE
:1026200002030AB00BB60CFF090208FF0D770E0477
:1026300013071410108015001600019292071B2139
:102640000F0404040101111B10120A0A0302019075
:1026500001BCEFF0E4F50CF50BF50AF509F50CF506
:102660000BF50AF509F508121C5A50259001BCE03B
:10267000121AC8E4FCFDE50C2FFFE50B3EFEED351C
:102680000AFDEC35098F0C8E0B8D0AF509050880C3
:10269000D6E47B03FAF9F8AF0CAE0BAD0AAC091225
:1026A0000F6B9001BCE0121B70121ADBE4750CA8D2
:1026B000750B61F50AF509F508121C5A5071900165
:1026C000BCE0FD121AC8ED121B70121A73FD123C09
:1026D00028D3EF940AEE94009001BCE0FF4008126A
:1026E0001B70121A73801175F008A42424F8E508F1
:1026F00025E028F8E6FC08E6FDEF25E02452F58207
:10270000E43401121A62FFC3ED9FFFEC9EFE339585
:10271000E0FDFCE50C2FFFE50B3EFEE50A3DFDE587
:10272000093C8F0C8E0B8D0AF5090508022E99E4E1
:102730007F607EEAFDFCAB0CAA0BA90AA809D312A4
:102740001013400BE4750C60750BEAF50AF509AE41
:102750000BAF0C2212367D123B8F7A01797012304A
:10276000087A0179687D0812301C7A01796012308C
:10277000087A01795E1230127A0179621230127A87
:1027800001793C7D0112301C7F03123024E4FFEFFD
:10279000121B2A5049121A69FD900102121A47129F
:1027A0001BEC121A69FD121A44121BEC900105125F
:1027B0001A47121C5490010B121A47746175F0A845
:1027C000120E98900111121A47746175F0A8120E3A
:1027D0009890010E121A47121C540F022F6F7B01A2
:1027E0007A0179757D1A7C00123C3E7B017A017971
:1027F0003D7D0A7C00123C3EE4900007F090004AC8
:102800007410F0A3F0121C3E900225E0700FC390EC
:102810000218E094F4900217E09401500A90021715
:102820007401F0A374F4F0227B017D027C00123C61
:102830003E227B017D027C00123C3E227B017C001B
:10284000123C3E229001B9EFF0E49001BBF0900100
:10285000B9E0FF9001BBE0C39F507612082EE490D0
:1028600001BAF0121B255060123A969001BAE0FDB1
:10287000121B84121ADBED121B84F583E0F8A3E02F
:10288000FFED75F008A4242AC8F608EFF6ED75F000
:1028900008A4FF2424F9E4FAFBC0E0C0E0E9C0E0AA
:1028A00074262FF9E49001BF1210A19001C2E4F048
:1028B000A37406F0D0E0F9D0E0FAD0E0FB12392C96
:1028C0009001BAE004F0809B9001BBE004F002307C
:1028D0002EE49001BAF0121B25504E122E2F9001BB
:1028E000BA121C0E121ADBED121C64121A62FFEDF2
:1028F000121B7A121A73FD123C287C007D05120D02
:10290000289001BA121B3FF583ECF0A3EDF0EF1213
:102910001B7A121A62FF9001BAE0121C64121ADBD1
:102920009001BAE004F00230B622C0E0C083C08259
:10293000C0D075D018D2AFE5DB30E422D207C20692
:10294000E5DB30E114123C54E0F5DFEF6407706919
:10295000D28A900007F00231BCC2050231BFE5DB2C
:1029600030E52C9000F0E064AA7017758A10F5DA53
:10297000C2AFF5B2F5A8F5A9F58B758E01758DC0BE
:1029800080FED204300604C2068054C2078050C2C2
:1029900006E5DB30E125E5DB30E044123C54E0F5B0
:1029A000DFEF24F9600C24FA60042402700BD208D3
:1029B0008007D28A900007E4F0802120050A78156C
:1029C000A6DFD205D2068017123C54E5DFF0EF6493
:1029D00024700990021904F0A374F4F078150675B8
:1029E000DBFFD0D0D082D083D0E0329001BCE0C4F5
:1029F00054F024E0F582E43401F58322EBC454F072
:102A000024DEF582E43401F583E4F0A3F09001BC08
:102A1000E0FFC454F024E2F582E43401F583E4F0ED
:102A2000A3F0EFC454F024E7F582E43401F58322E7
:102A30009001BCE0FBC454F024DAF582E43401F5E3
:102A40008322E0FDA3E09001BDCDF0A3EDF0EFC443
:102A500054F024E6F582E43401F583229001BCE0D1
:102A6000C454F024E4F582E43401F58322C454F024
:102A700024E8F582E43401F583229001BDE0FEA351
:102A8000E0FF22C454F024DEF582E43401F5832211
:102A90009001BF0210379001BF02104390014774AC
:102AA0000AF0A3748CF0123AD37B017A0179527D3B
:102AB000047C00123C3EE49001B8F09001B812375B
:102AC000C55076123BB49001B8E090080693FF120F
:102AD0003772E0FCA3E0C39405EC9400400F12377A
:102AE00098E0FEA3E0D394F0EE940740179001B86D
:102AF000E0FF25E02447F582E43401F583E4F0A308
:102B0000F0123BB4902E23E4F09001B812376C120F
:102B1000377B2FFFEC3EFE9001391210989001B8E0
:102B2000E075F002A4F58285F083EE8FF0120E9826
:102B30009001B8E004F002329B90001D7410F02266
:102B4000E4FFFD90021BE07004A3E06401701190AB
:102B50000007E06004D28AE4F0E490021BF0A3F0E6
:102B600090013CE0600E900024E064106006EF44A9
:102B700020FF8004EF4410FF90004AEFF09000FF28
:102B8000E0FC6F605B90004AE0FFEC6FFE9000FF9E
:102B9000EFF0208A1BD28A90021BE4F0A37403F0AA
:102BA00090021CE024FFFB90021BE034FF4B70F00E
:102BB000900007E0700790004AE05E8013EEF4FF9B
:102BC0009000FFE05FFDEEFF90004AE05FFFED4FF9
:102BD000900007F090021B7403F0A374E8F0C28A1F
:102BE0002275F00E12108CE0FEA3E0FFE4FCFD90D5
:102BF00001C9121043120EE09001C6E075F00EA458
:102C00002275F00E02108C75F00EA42402F582E4F9
:102C10003402F5832224FEF582E43401F583222474
:102C2000FAF582E43401F583222406F582E43402C5
:102C3000F5832212104F9001D20210379001C90281
:102C40001037ED75F005A42499F582E4343CF58342
:102C5000E49322EC75F00E02108C75F00EA42403A0
:102C6000F582E43402F583222405F582E43402F58A
:102C700083229001D202104F2008030234E8300072
:102C8000030234E8C208E49001B9F09001B91237A8
:102C9000C5506BE0FE12376EE0FCA3E0FDEE12378C
:102CA000ADECF0A3EDF0123BB49001B912376C1209
:102CB000377B2FFFEC3EFE9001B9E0FD1237B9EEF5
:102CC000F0A3EFF0ED1237B9E0FEA3E0FF90013979
:102CD00012109875F002EDA4F58285F083EE8FF066
:102CE000120E98ED1237ADE0FEA3E0FFED12376E45
:102CF000EEF0A3EFF09001B9E004F002346B900223
:102D0000197403F0A37420F022787FE4F6D8FD75DF
:102D1000812D023533020000022D75E493A3F8E4FF
:102D200093A34003F68001F208DFF48029E493A323
:102D3000F85407240CC8C333C4540F4420C883403C
:102D400004F456800146F6DFE4800B01020408100B
:102D5000204080903B09E47E019360BCA3FF543F78
:102D600030E509541FFEE493A360010ECF54C02543
:102D7000E060A840B8E493A3FAE493A3F8E493A333
:102D8000C8C582C8CAC583CAF0A3C8C582C8CAC597
:102D900083CADFE9DEE780BE900136121098120D7B
:102DA000C9641045F07003123A53900001E064AA20
:102DB00070031237CF900013E0FF7E0064107002A2
:102DC000D203EF64204E7002C2031236F9200908C4
:102DD00090001AE06410700D90001A7411F0C2098E
:102DE000E4900216F09000FBE06006E4F09002161A
:102DF000F0900166E07004A3E06401701090016639
:102E0000F0A3F0900199F0A3F0900216F030040CBA
:102E1000C2049002197401F0A374F4F022308A7C89
:102E2000D3900218E094E8900217E09403506D905C
:102E30000166E07002A3E07063F5B2758D20438DEA
:102E400020758D8043A808D2AFF58B90012CE0FE51
:102E5000A3E0FF4E6005758E508003758EFE200442
:102E60002F20072CE5DB54047026758A8420072068
:102E7000E5DB5404701AF58675870300000075863B
:102E800001EF4E60047F5080027FFE7E0012243BE3
:102E9000758B01758A1053A8F7123BD8227B017AF3
:102EA0000179FA7D1C7C00123C3EE4FDEDC39402E6
:102EB000748094805062E49001B8F09001B8E0FF13
:102EC000C3940174809480504B123422FEED75F04F
:102ED0000EA4123448EF123434EEF012342204F807
:102EE0007E007401088005C333CE33CED8F9FFEDE0
:102EF00075F00EA4123409C083C0829001B8E0D0EE
:102F000082D0831233E1EEF0A3EFF09001B8E00439
:102F1000F002369B0D02368C22900226E014601BD4
:102F200014603D2402705430030D9002267401F0A9
:102F3000D202D200123CA3C2018040900223E07072
:102F400002A3E07002C2022003319002267402F054
:102F5000D201C202C200900223F0A37458F0801B79
:102F6000900223E07002A3E0701190022620030378
:102F7000F080067401F0123CA3C20120010330026C
:102F80000A900025E064106002D20922E0FB90085C
:102F90000693902E1075F00202108CE0FEA3E0FF65
:102FA0007C007D0A120D16EB25E02447F582E434FF
:102FB00001F583E0FCA3E02275F002EF902E1002F1
:102FC000108CEF25E02466F582E434012225E0240C
:102FD000BCF582E43401F5832225E024BAF582E4CD
:102FE0003401F58322E0FFC3940174809480229021
:102FF00001B87408F0A3E4F0A3743FF0A374DFF009
:10300000E4FDFCF9123C62009001B8E0FEA3E02D63
:10301000F582EE3CF583E493FF69F90DBD00010CE8
:10302000BC37E5BDDFE29001BAE0FEA3E0F5828E99
:1030300083E493FFE96F70089000017402F080054B
:10304000E4900001F0123C62002274FFF5F0020DE2
:10305000B3E475F001020DB3C3900146E094BC9057
:103060000145E0940222C3900184E09464900183BE
:10307000E0940022C39001E9E094B89001E8E09464
:103080000B22C39001E3E094F49001E2E09401226A
:10309000EE8FF0020DB3EF2401FDE43EFCD3E09D82
:1030A000227F01123024121C74E49001B8F09001C8
:1030B000B8121B28503B12397D9001B8E0FF122254
:1030C0009BEEFCEFFD9001021210989001B8E0FF1A
:1030D000121A4B121BEC1214139001B8E0FF122CC1
:1030E0005F9001B8E0FF1220F79001B8E004F08093
:1030F000BD123320023458E4FEEEC394077480946A
:1031000080502FEE75F003A4241BF582E4342EF5D5
:1031100083E5822FF582E43583F583E493FDEE7534
:10312000F003A4241AF582E4342E122AEBEDF00EFB
:1031300080C7EF7016EF25E02447F582E4340112D2
:103140002A7D4E7006902E217412F0229001C41236
:1031500010A19001BF1210989001C71210A1900108
:10316000C2E07002A3E060349001C7121098120C04
:10317000EBFF9001C4121098EF120D049001C5E40A
:1031800075F001120DB39001C8E475F001120DB392
:103190009001C274FFF5F0120DB380C222EF25E05A
:1031A0002452F582E43401123791243CFDEC34F6CC
:1031B000FCEF25E02460F582E43401F583E0FAA316
:1031C000E0C39DEA9C50161237A21237914C70163C
:1031D0001237A2F5837401F0A374F4F0221237A21F
:1031E000F583E4F0A3F022900025E06410703FF531
:1031F000B2758D20438D20538D7F53A8F7F58BE555
:10320000DB54047013200710F58AF58675870300D8
:103210000000758601758A10758B01900225740176
:10322000F09002197403F0A37420F0123BD822C26C
:10323000D5E830E70FB2D5E4C39BFBE49AFAE499F2
:10324000F9E498F8EC30E717B2D5123A45120F6B53
:10325000E4C39BFBE49AFAE499F9E498F88003123A
:103260000F6B30D50DE4C39FFFE49EFEE49DFDE4AB
:103270009CFC22E49001B8F0A3F0123C6200122DF5
:10328000E475EA81E4F5F6F5F475F308F5F275EB0B
:103290000700E5EC30E7FBAFF3EFFEADF2EDFF909A
:1032A0000136121098EE8FF0120E79E4F5EC75EB02
:1032B00030123C620022EFFB121B7A121A62FF12DC
:1032C0001C49121ADBEB121B84121A73FDECC0E0CE
:1032D000EDC0E0121C49121A62FFE4FCFD9001C926
:1032E00012104FEB9001CDF0D0E0FDD0E0FC7F015B
:1032F0000210D7E4FFEFC3940D748094805021EF47
:1033000025E02401F582E4342EF583E493FEEF25D5
:10331000E02400F582E4342E122AEBEEF00F80D583
:10332000902F56E0902E2BF022C10741023305C1A9
:10333000084102270041022600C103C101C100C1AA
:1033400002C105011500C104C1064101B7004100D9
:10335000FF10C10943022E01023100E4F5DA75DAEB
:103360004043DA2030880875D74075D6408006750E
:10337000D74275D6425392FE75DA5843A80275B803
:103380000275F802229001BCEFF0E075F010A42461
:10339000DAF9740135F0FA7B017D107C00123C3EB5
:1033A0009001BCE012324D740BF0A374B8F0227A95
:1033B000017956123BAA7A01795A123BAA7B017A0B
:1033C0000179A17D127C00023C3E7B017D047C00E2
:1033D000123C3E229001BEEFF0123C0F9001BEE085
:1033E000FF1238D79001BEE090080693FF1228FE26
:1033F0009001BEE0FF023C83E5B254016006E5A8FF
:103400005410700F75B29275B6F9E4F5B743B20176
:1034100043A81022758A10538AEF758601758F05AF
:10342000E4F5AB75AC0F75913E759201D28A22EF2F
:10343000F87401088002C333D8FC42AB122B17F496
:10344000529152935391DF22D3EF9DEE9C4007EFB0
:103450009DFFEE9CFE22C3ED9FFFEC9EFE22ED4CF5
:103460006011E4120D040429F9E43AFAED1D70EE3E
:103470001C80EB227815E6FF2400F582E43400F589
:103480008322758A10538AEF22009600960701F472
:1034900000000000000000EE30E707C3E49FFFE4F7
:1034A0009EFE22122B1742914288439120229002C5
:1034B0002E121098120DC9FF2204001E00190100DF
:1034C00014001490022304F0A37458F022000000AA
:1034D00000000000000000000000000000000000EC
:1034E00000000000000000000000000000000000DC
:1034F00000000000000000000000000000000000CC
:1035000000000000000000000000000000000000BB
:1037F000000000000000000000000000000000FACF
:1038000000000000000000000000000000000000B8
:1038100000000000000000000000000000000000A8
:00000001FF
