:10000000002200000002000079460000000000000D
:1000100000000000000000000000000000000000E0
:100020000235A70102200001023CAE02310AD2AF24
:1000300032000002081ED2AF32000002080ED2AF1A
:100040003200000223CB0000000000020816BB01B2
:100050000689828A83E0225002E722BBFE02E32265
:1000600089828A83E49322BB010689828A83F022F3
:100070005002F722BBFE01F322EF8DF0A4A8F0CFCF
:100080008CF0A428CE8DF0A42EFE22BC000BBE0066
:1000900029EF8DF084FFADF022E4CCF875F008EF85
:1000A0002FFFEE33FEEC33FCEE9DEC984005FCEEAA
:1000B0009DFE0FD5F0E9E4CEFD22EDF8F5F0EE84DB
:1000C00020D21CFEADF075F008EF2FFFED33FD40A0
:1000D00007985006D5F0F222C398FD0FD5F0EA221A
:1000E000C2D5EC30E709B2D5E4C39DFDE49CFCEE3B
:1000F00030E715B2D5E4C39FFFE49EFE12086BC340
:10010000E49DFDE49CFC800312086B30D507C3E43A
:100110009FFFE49EFE22C5F0F8A3E028F0C5F0F8AA
:10012000E582158270021583E038F022BB010A894E
:10013000828A83E0F5F0A3E022500687F009E719F0
:1001400022BBFE07E3F5F009E3192289828A83E4E2
:1001500093F5F074019322BB0110E58229F582E545
:10016000833AF583E0F5F0A3E0225009E92582F80F
:1001700086F008E622BBFE0AE92582F8E2F5F008DF
:10018000E222E5832AF583E993F5F0A3E99322BB04
:10019000010DC58229C582C5833AC5830208F65080
:1001A00011C58229F808E5F026F618F5F0E5823643
:1001B000F622BBFE11C58229F808E225F0F5F0F21F
:1001C00018E23582F222F8E58229F582E5832AF5E4
:1001D0008374019325F0F5F0E4933822BB010A897A
:1001E000828A83F0E5F0A3F0225006F709A7F01900
:1001F00022BBFE06F3E5F009F31922F8BB0111E575
:100200008229F582E5833AF583E8F0E5F0A3F02250
:100210005009E92582C8F608A6F022BBFE09E925A7
:1002200082C8F2E5F008F222EF2BFFEE3AFEED393C
:10023000FDEC38FC22C3EF9BFFEE9AFEED99FDEC3E
:1002400098FC22E88FF0A4CC8BF0A42CFCE98EF073
:10025000A42CFC8AF0EDA42CFCEA8EF0A4CDA8F02E
:100260008BF0A42DCC3825F0FDE98FF0A42CCD35F2
:10027000F0FCEB8EF0A4FEA9F0EB8FF0A4CFC5F05C
:100280002ECD39FEE43CFCEAA42DCE35F0FDE43C55
:10029000FC2275F008758200EF2FFFEE33FECD33A0
:1002A000CDCC33CCC58233C5829BED9AEC99E582E7
:1002B00098400CF582EE9BFEED9AFDEC99FC0FD573
:1002C000F0D6E4CEFBE4CDFAE4CCF9A88222B80063
:1002D000C1B90059BA002DEC8BF084CFCECDFCE52E
:1002E000F0CBF97818EF2FFFEE33FEED33FDEC3352
:1002F000FCEB33FB10D703994004EB99FB0FD8E5D7
:10030000E4F9FA227818EF2FFFEE33FEED33FDEC1F
:1003100033FCC933C910D7059BE99A4007EC9BFC15
:10032000E99AF90FD8E0E4C9FAE4CCFB2275F010A1
:10033000EF2FFFEE33FEED33FDCC33CCC833C810C6
:10034000D7079BEC9AE899400AED9BFDEC9AFCE8F4
:1003500099F80FD5F0DAE4CDFBE4CCFAE4C8F92241
:10036000EB9FF5F0EA9E42F0E99D42F0EC6480C814
:1003700064809845F022EB9FF5F0EA9E42F0E99DFB
:1003800042F0E89C45F022E8600FECC313FCED134B
:10039000FDEE13FEEF13FFD8F122E0FCA3E0FDA376
:1003A000E0FEA3E0FF22E0F8A3E0F9A3E0FAA3E077
:1003B000FB22ECF0A3EDF0A3EEF0A3EFF022A88275
:1003C0008583F0D083D082120BB5120BB5120BB51A
:1003D000120BB5E473E493A3C583C5F0C583C8C508
:1003E00082C8F0A3C583C5F0C583C8C582C822A44E
:1003F0002582F582E5F03583F58322E0FBA3E0FA60
:10040000A3E0F922EBF0A3EAF0A3E9F022EC8EF0EE
:10041000A4CCC5F0CCCDF8EFA4CEC5F02DFDE43CC6
:10042000FCE8A42EC8C5F03DFDE43CFCEFA4FFE5CC
:10043000F028FEE43DFDE43CFC22E4900234F0129E
:10044000307F5010EF123032120B9E000027101236
:1004500030F980EBE4900235F0900235E0C394056A
:10046000748094804003020DE0E4900234F0123076
:100470007F4003020DD7A3E02401FDE433FC749D0B
:100480002F123100D3ED9F7480F86C984003020D59
:10049000D1900234E0FF1238AA900234E0FF123CFF
:1004A000FF758A5075B28F902E207401F0902E2027
:1004B000E030E2F9900234E0FF9008069375F00214
:1004C000902E00120BCFE0FCA3E0FD1230B6F583B6
:1004D000ECF0A3EDF0902E20E4F0758A1075B29345
:1004E000900234E0FF123D97123058123071FDEF48
:1004F00025E02489F582E4340112305124CCF582C0
:10050000E43401123078FD1230B612304A2DFFEE7D
:100510003CFE12309A24D0F582E43401F583E0FAEF
:10052000A3E0FBC3EF9BFFEE9AFEED1230B7F5831D
:10053000EEF0EF123056123071FD1230C112305110
:100540001230A4123078FD4C70091230C112304ABA
:10055000FF801F900234E0FBED25E0FFEC33FEEB63
:100560001230C21230782FFFEC3EFE7C007D031269
:10057000086B12309A1230A41230691230404E705B
:100580000CED1230A212304AFFED123060123058DA
:100590002479F582E43401123078FDECC0E0EDC03E
:1005A000E0EF1230A212304AFFE4FCFD9002451247
:1005B0000B92900234E0900249F0D0E0FDD0E0FCD4
:1005C000E4FF120FA4900234E0FD123060ED12300F
:1005D00032C083C082120B861230402400FFEE34FA
:1005E000E8FE3395E0FDFC120A08D082D083120B9E
:1005F000921230F9020C4E900235E004F0020C39F0
:10060000902E23E4F0900234F012307F4003020F6A
:10061000A3EF123032C083C082120B86E8C0E0E93B
:10062000C0E0EAC0E0EBC0E0900234E0249D12316B
:1006300000FBE4FAF9F812302E120B7A123B08D0C4
:10064000E0FBD0E0FAD0E0F9D0E0F8120A08D0825E
:10065000D083120B9212302E120B7AE47B507AC3A5
:10066000F9F8C3120B40500A12302E120B9E0000F4
:10067000C350900234E0FF123032120B86E8335040
:100680000BEF123032120B9E000000001230581295
:1006900030AE1230784C7009EF123032120B7A8083
:1006A0002C900234E01230AC12304AFF7C007D0204
:1006B000120BEDECF8EDF9EEFAEFFB12302E120B07
:1006C0007A120A08E47B03FAF9F8120AAE12309A99
:1006D0001230AEF583EEF0A3EFF01230E412304AA0
:1006E0004E700EED1230AC12304AFF1230E4123070
:1006F0006912305812308EC083C082120B86EF12FE
:100700003041FFE4FCFD120A08D082D083120B9224
:100710001230581230DCF583E475F0011208F6EF60
:100720001230DA12304AFFD3940AEE94004036EFCA
:10073000FBEEFAE4F9F8900234E012308C120B7AF6
:10074000120AAE12309A2428F582E434011230697C
:10075000ED1230DAF583E4F0A3F0ED12308C120BD9
:100760009E00000000900138E07002A3E0704E90FF
:100770000234E0FD123041FFED25E02428F582E44B
:100780003401123078FD123D1812309A2424F5827B
:10079000E43401123069ED25E02424F582E43401CB
:1007A00012304AD39406EE94004012900138740738
:1007B000F0A374D0F0A3E475F0011208F61230F93A
:1007C000020DE922900243ECF0A3EDF0900242EF1B
:1007D000F01234A5C083C082900249E0D082D08359
:1007E00012349FE070461234961234B3C083C08234
:1007F000900249E0D082D08312349F120B7AE4FB3E
:10080000FAF9F8C3120B5660231234961234BDC0A5
:1008100083C082900249E0D082D08312349F120BB1
:100820007AE4F8C3120B5660030211081234DAC3DB
:10083000900244E09FFF900243E09E1212C9C083E1
:10084000C082900249E0FCD082D08312349FEEF047
:10085000A3EFF0ED1234A51234F1E06050900242A3
:10086000E0FF1234F8C083C082900249E0D082D009
:100870008312349FE0FCA3E0FDEF75F005A424A5EE
:10088000F582E4343DF583E493FE740193FFD3EDE8
:100890009FEC9E40181234961234A9C083C08290F7
:1008A0000249E0D082D08312349F7405F01234DA0A
:1008B0001234961234B3C083C082900249E0D082D1
:1008C000D08312349F120B921234961234C7C08315
:1008D000C082900249E0D082D08312347F1234BDAE
:1008E000C083C082900249E0D082D08312349F122C
:1008F0000B92900242E0FF1234A5C083C0829002A6
:1009000049E0FED082D08312349FE0D394007480FB
:100910009480400EEF1234A575F00EEE120BCFE06E
:1009200014F09002450212C51234961234B3C083FB
:10093000C082900249E0D082D08312349F120B7A99
:1009400090024A120B921234961234BDC083C082B8
:10095000900249E0D082D08312349F120B7A900229
:100960004E1234D1123496123506C083C0829002E2
:1009700049E0D082D08312349FE0F9F8120B67EF80
:10098000FBEEFAEDF9ECF81234D4120A159002528B
:10099000120B9290024A120B7A900245120B8612A9
:1009A0000A08900252120B86120A081235101234ED
:1009B000DA1234961234B3C083C082900249E0D078
:1009C00082D08312349F1234D11234961234BDC0B7
:1009D00083C082900249E0D082D08312349F1234C7
:1009E000D1ECC0E0EDC0E0EEC0E0EFC0E012349624
:1009F0001234C7C083C082900249E0D082D08312F3
:100A0000349FE0FEA3E0FBEEFAE4F9F8D0E0FFD07B
:100A1000E0FED0E0FDD0E0FC120AAE1235109002EC
:100A200042E0640160030212C21234DAEFFBEEFA14
:100A30001234D4C3EF9BFFEE9A1212C9C083C08256
:100A4000900249E0FCD082D08312349FEEF0A3EFF5
:100A5000F0ED1234F81234F1E0FEA3E0FF90024210
:100A6000E0FB75F005A424A3F582E4343DF583E4AE
:100A700093FC740193FDD3EF9DEE9C40651234DA34
:100A8000EB75F01CA41234B3C083C082900249E01D
:100A9000D082D08312349F120B921234961234C734
:100AA000C083C082900249E0D082D08312347F128A
:100AB00034BDC083C082900249E0D082D08312341A
:100AC0009F120B921234961234A9C083C0829002F6
:100AD00049E0D082D08312349F7405F01234DA12C8
:100AE000351090024E120B7A22FE123D8B9002427C
:100AF000E0FD75F01CA42401F582E43402F58322A4
:100B0000900231121A8E40030216191219041209AA
:100B100037D39DE5F09C403490010A1219B01219A8
:100B20000F121A37D3EF9430EE9475400C900232C6
:100B30007475F0A37430F08006121904121A4290F2
:100B40000231E0121A9EF583E402139F9001041211
:100B500019B0FF121925121AA8121921121A37D327
:100B6000EF9410EE9427400C9002327427F0A37497
:100B700010F080139001041219B0FF121925121AF7
:100B8000A8121921121A421219D3900231E0FD1253
:100B90001A9E1219CB30001DED121A9E12193CD369
:100BA000942CEE94014014121A53F5837427F0A389
:100BB0007410F08006121A531219A6E4900232F053
:100BC000A3F0121966E0606F121A5ED39400EC6411
:100BD0008094804020EF25E024221219C4D3ED9F99
:100BE000EC9E4011900231E0121AB2F583E4F0A3BA
:100BF0007464F08022900231E0FF121AB212194D93
:100C0000D39400EC9400400F9001071219211209AF
:100C100037FFE5F0121AED900231E0FF121ABC74B2
:100C200001F0EF25E0247DF582E43402F583740FB2
:100C3000F0A374A0F0800F1219E6F5837403F0A3FB
:100C400074E8F0123C60D3900233E09400900232DA
:100C5000E06480948050030215D5E0FEA3E0FF120B
:100C600019AD121925121AC6EE3395E0FDFCE47B8E
:100C7000B87A88F9F8C3120B40500A90023274888F
:100C8000F0A374B8F030003C121966E07016EF253E
:100C9000E02436F8E6FC08E6FD1219D3C39DEE9C6D
:100CA0005063801A900231E025E02422F8E6FC0827
:100CB000E6FDA3E0FEA3E0FFC39DEE9C50477C0051
:100CC0007DC8803B900231121A1212194DD3940044
:100CD000EC940050089000F1E064207028EF25E0CB
:100CE00024221219C4121A5EC39FEC9E5017ED9471
:100CF00000EC64809480400D1219D37C007D0A12B0
:100D000008C0121AEC121966E0606FEF1219EB12AC
:100D1000193C4E7011900231A3E0FCA3E0FD1216C5
:100D20001A121AEC802F12192FFF121A5E123D1898
:100D3000D3EF9432EE9400401C1219E612194DD3F1
:100D400094C8EC9400400EEF1219EBF58374FF7514
:100D5000F09C1208F612192FFF7C007D07120BED94
:100D6000900232121975EE3395E0FDFC120A08E488
:100D70007B08FAF9F8120AAE80031219D3900231F7
:100D8000E025E02444F582E434011219CB12192F36
:100D9000FFD39405EE9400400EEF9410EE940050B3
:100DA00006900232EE8015900231121A2B12194D64
:100DB000FDEF1219332DFFEE3C900232F0A3EFF05D
:100DC000D3900233E09430900232E0648094F54096
:100DD000077475F0A37430F0E5DB5404705B1219EE
:100DE000D39001101219B0FD121925121AC6EF2462
:100DF000A8FFEE8031E5DB5404703E1219ADFF12FE
:100E00001925121B2FEF121A2D12193CFF900110F9
:100E10001219B0FD121925121AC6ED121925120960
:100E20003724A8FFE5F03461FE90010D120BDB754D
:100E3000F002ED121928121AC622900234EFF0A324
:100E4000ECF0A3EDF0EF1232F9E0FEA3E0FF123D6B
:100E500018D3EF9432EE9400401C1232C9120B9E4C
:100E600000000000123295E4F01233131232F5EE56
:100E7000F0A3EFF08043123284E0FEA3E0FFD394AE
:100E800000EE94004033900235E0FCA3E0FDD3EF88
:100E90009DEE9C400B900234E01232BCE04401F025
:100EA000900234E0FF123288E0FAA3E0C39DEA9C8E
:100EB00050071232BBE04402F0900234E01232CE0E
:100EC000C083C082120B86123313E4FCFD120A08A1
:100ED000D082D083120B92900234E0FF12331CE4D4
:100EE00075F0011208F6EF75F007A42482F582E48C
:100EF000343DF583E493FE740193FF900234E0FDEA
:100F0000C454F0245EF582E43402F583E0FAA3E0F1
:100F1000C39FEA9E500302189AED12331CE0FEA311
:100F2000E0FFFBEEFAE4F9F8900234E01232CE1260
:100F30000B7A120AAE900237120B92123284E0FE44
:100F4000A3E0FFEEC0E0EFC0E0123329EFFDEEFCBE
:100F5000D0E0FFD0E0FE123D1890023BEEF0A3EF90
:100F6000F0900234E0FD75F007A4247DF582E434AE
:100F70003DF583C37401939FE4939E401FED1232AD
:100F800088E0FEA3E04E6014900234E0FB123306CA
:100F9000E0FEA3E0C394B8EE940B5021900234E03D
:100FA000FF123288E0FCA3E04C7008EF123306E435
:100FB000F0A3F0123329123284EE021844EB6007DA
:100FC0006401600302184AE490023DF090023BE0A5
:100FD000FEA3E0FFD39450EE94004006A37408F003
:100FE0008032900234E01232BCE064036026D3EF1A
:100FF000943CEE9400400890023D7402F08015D3BA
:1010000090023CE0943290023BE094004006900253
:101010003D7401F0123284E0FEA3E0FFE4FCFD1217
:10102000332FD3120B56401190023DE0FF12328451
:10103000E48FF01208F6021880D390023CE094503E
:1010400090023BE094004058123284C083C082E09A
:10105000FEA3E0FF90023DE0FDC3EF9DFFEE940094
:10106000D082D083F0A3EFF08036123284E0FEA36A
:10107000E0FF4E700D12332FEBFFEAFEE9FDE8FCB6
:1010800080167C007D07120BED12332F120A08E444
:101090007B08FAF9F8120AAE123284EEF0A3EFF0F0
:1010A0001232C9120B9E00000000123295E4F012B9
:1010B00033291232F5EEF0A3EFF0123284E0FCA3F4
:1010C000E0FDD39400EC94004056123313123D1807
:1010D000900234E075F007A4247FF582E4343DF5F6
:1010E00083D37401939FE4939E400F900234E0FFFA
:1010F0001232881232DBE4F08026900234E0FF7571
:10110000F007A42481F582E4343DF583E493FE12D4
:1011100032E7E0C39E50091232841232DBE004F061
:101120001233132290010A120BDB900231E0FF759B
:10113000F002A4F58285F083120937FDACF090012E
:1011400004120BDBEF75F002A4F58285F083229088
:101150000231E025E02444F582E43401F583E0FE29
:10116000A3E022EF25E02400F582E43401F583E0DA
:10117000FCA3E022900231E075F00AA42450F5822D
:10118000E43401F58322900231E0FF244EF582E43D
:101190003401F58322ECF8EDF9EEFAEFFBE0FEA363
:1011A000E0FF22120B7A900234EEF0A3EFF0EB7521
:1011B000F00AA42456F582E434012275F00AA4242E
:1011C00054F582E43401F583E4F0A3F022900107A2
:1011D000120BDB900231E02275F008A42426F8E51A
:1011E0000825E028F8E6FE08E6FF22F583EEF0A3E6
:1011F000EFF022900232E0FEA3E0FF2290010A12FB
:101200000BDB90023122900231E0FF25E02489F5CA
:1012100082E4340222900231E025E024A1F582E448
:10122000340122EF25E025E02491F582E43401F534
:101230008322E0FF25E02485F582E4340222900237
:1012400032E0FFC394027480948022E0FF25E02402
:101250003CF582E4340122120937C39DFFE5F09C7E
:10126000FE22120937C39DFEE5F09C900232F0A3E6
:10127000CEF022ED25E024DEF582E4340122900256
:1012800032E0FCA3E0FD2225E024A5F582E4340150
:101290002225E02481F582E434012225E02485F52D
:1012A00082E4340122F583E475F0010208F6EFF0E0
:1012B000D3900278E09400900277E094002225E039
:1012C00024DAF582E4340122120937FDACF09001F2
:1012D0000A2225E02481F582E434022224F6F582F4
:1012E000E43401F58322EE8FF00209DBE0FEA3E097
:1012F000FFE4FCFD020A08900231E0FF25E024EC47
:10130000F582E4340122EC8DF00209DBEE9002322A
:10131000F0A3EFF02275F00AA42454F582E434011E
:101320002275F00AA42458F582E4340122900107C2
:10133000120BDB900231E0FF229002797403F0A3DC
:101340007420F022EB25E0247DF582E4340122E4D0
:10135000F5F00209DBC3E50894037480948022252C
:10136000E02440F582E434012275F002020BCF1232
:101370000937FFAEF022900231EFF0A37402F0A320
:1013800074BCF0E4A3F0A3F0D39001E3E0940090E8
:1013900001E2E0940040149001041219DFE0FF1212
:1013A0001925121AA8121921121AE6900277E07074
:1013B00002A3E0600B900232E4F0A37464F0800BAF
:1013C00090001AE0641170037420F0900231E0FB89
:1013D00012196BE06017900231E0FA121958120BE3
:1013E0009E00000000EA12199BEB021D991219548D
:1013F000C083C082120B86E8C0E0E9C0E0EAC0E02A
:10140000EBC0E09001041219DFE0121925121B4F06
:10141000E4FCFDD0E0FBD0E0FAD0E0F9D0E0F81237
:101420000A08D082D083120B92900231E0FF121A88
:10143000F5121A85EF121B0112193CFF900232E0DF
:10144000FCA3E0FDC3EF9DEE9C5003021D9F12190B
:1014500054C083C082120B7AECC0E0EDC0E0EEC055
:10146000E0EFC0E0900231E0121AF512193CFBEEF9
:10147000FAE4F9F8D0E0FFD0E0FED0E0FDD0E0FCE7
:10148000120AAED082D083120B921219DCE012192C
:10149000251209372450FFE435F0FEE4FCFD121953
:1014A00054120B86D3120B56403B900277E0700229
:1014B000A3E07031900231E0FB121ABCE07026907C
:1014C0000231E0FF12198F121A85EF12198F1219CB
:1014D0003CD39403EE94004023EB12195812198365
:1014E0001219A68017900231E0FB121958121983C5
:1014F0001219A6900231E0121ABCE4F0900231E019
:10150000FF12198F12194D4C6003021D8290010ABF
:10151000121921120937FFC3900235E09F9002345F
:10152000E095F0506B1219DC12190D121A37123DAA
:101530008BC3EF94E8EE648094835054900231E0C2
:10154000640190010A701F1219DFE0121925121BA5
:101550004F7C007D04120BED900234121975121AA3
:10156000D1E47B0580221219DFE0121925121B4FEE
:101570007C007D02120BEDECF8EDF9EEFAEFFB903A
:101580000234121ACCE47B03FAF9F8120AAE80088E
:10159000900234E0FEA3E0FF1219DCE012192512DC
:1015A0001AC6900231E0FB121958120B9E0000007F
:1015B00000EB12199B900231E0121B011219A622B6
:1015C000900232EFF0E0FF244EF582E43401F5831F
:1015D000E07003021E6FEF122AECE0FEA3E04E70F3
:1015E000269001B6E0FEA3E0FF900232E0FD122A51
:1015F000ECEEF0A3EFF0122AD4FFED122AC8E5F0CA
:10160000F0A3EFF0021E93900232E0122AECE0FE0B
:10161000A3E0FF9001B6E0FCA3E0FD123D189001AD
:10162000D4120BDB900232E0FD122B48EE8FF01249
:1016300009DB74AA2D122B36E070339001D4122AE4
:10164000D7C39406E5F094005010122AD4FFED128F
:101650002AC8E5F0F0A3EFF08014E4FFEF122B8B23
:10166000500C74AA2F122B367401F00F80EE122A40
:10167000E7E0FCA3E09001B6122BA5400A74AC2F62
:10168000122B7EE4F0802C122B787401F08024124F
:101690002AE7E4F0A3F0122AC7E4F0A3F074AA2F1B
:1016A000122B36E4F0122B16E4F0A3F0122B09E40F
:1016B000F0A3F0122B2FE07003021FDB122AC7E009
:1016C000FEA3E0D39400EE94005003021FDB122B24
:1016D0009F900232E0FD122ADBFFAEF0ED122AC825
:1016E000E0FCA3E0FD123D18900233EEF0A3EFF012
:1016F0009001D8EEF0A3EFF0122AAF122BBC400CF1
:10170000D3900234E0945A122B715013122AAF1264
:101710002BC65053900234E09496122B714048121D
:101720002B2FE4F0EF122AECE4F0A3F0122B9FEF42
:10173000122ADBFF900232E0FD122AC8E0FAA3E091
:10174000C39FEA95F0500CED122B5FE4F0A374C830
:10175000F0800E900232E0122B5F7401F0A3742C23
:10176000F0122B78E4F022122AAF122BBC404CD39B
:10177000122B6B4046900232E0122B0AE0FEA3E0EF
:10178000122B985036122B3E74FF75F0F712096F2A
:10179000122B09E475F0091208F6122B16122B937E
:1017A0005019122BB1400D122B1774FF75F0F71260
:1017B00008F68007122B17E4F0A3F0122AAF122BC1
:1017C000C65038122B6B4033122B3EE475F00912D1
:1017D000096F122B16E475F0091208F6122B091284
:1017E0002B935017122BB1400B122B0A74FF75F07C
:1017F000F70208F6122B0AE4F0A3F022D390027845
:10180000E09F900277E09E400AA3E09FF09002776D
:10181000E09EF090027C1236D790027BE09C400C58
:10182000A3E09FF090027BE09EF08002D28AD390EA
:10183000027AE09F900279E09E400AA3E09FF09038
:101840000279E09EF01236E250031236D1D39002B4
:1018500082E09F900281E09E400AA3E09FF0900208
:1018600081E09EF0D3900286E09F900285E09E404A
:101870000AA3E09FF0900285E09EF0D390028AE0F8
:101880009F900289E09E400AA3E09FF0900289E0C9
:101890009EF0D39001DFE09F9001DEE09E400AA31E
:1018A000E09FF09001DEE09EF0D390027EE09F90FA
:1018B000027DE09E400AA3E09FF090027DE09EF052
:1018C000D390028EE09F90028DE09E400AA3E09F9D
:1018D000F090028DE09EF01236F050031236D1D314
:1018E000900284E09F900283E09E400AA3E09FF074
:1018F000900283E09EF0D3900288E09F900287E000
:101900009E400AA3E09FF0900287E09EF0D39002F1
:101910008CE09F90028BE09E400AA3E09FF0900233
:101920008BE09EF0D3900280E09F90027FE09E408B
:101930000AA3E09FF090027FE09EF0D39001E1E0E7
:101940009F9001E0E09E400AA3E09FF09001E0E05C
:101950009EF01236FE50031236D1D39001C1E09FA3
:101960009001C0E09E400AA3E09FF09001C0E09E7D
:10197000F0D39001C3E09F9001C2E09E400AA3E033
:101980009FF09001C2E09EF090018E1236D7900138
:101990008DE09C400AA3E09FF090018DE09EF0D383
:1019A0009001E3E09F9001E2E09E400AA3E09FF0F7
:1019B0009001E2E09EF0EF2401FDE43EFCD39001B3
:1019C00090E09D90018FE09C400AA3E09FF0900181
:1019D0008FE09EF012370C50031236D112371A5096
:1019E000031236D112372850031236D1123736502F
:1019F000031236D1D3900139E09F900138E09E4028
:101A00000AA3E09FF0900138E09EF0221226F2D364
:101A1000900278E09400900277E094004003022363
:101A2000CA9001B8120B8690011FE0FEA3E0FFE40C
:101A3000FCFD120A089001B8120B929001BCE475EB
:101A4000F0011208F6C39001BFE094649001BEE07B
:101A5000940050030222B59001B8120B7AECC0E05A
:101A6000EDC0E0EEC0E0EFC0E09001BCE0FEA3E01E
:101A7000FBEEFAE4F9F8D0E0FFD0E0FED0E0FDD0D4
:101A8000E0FC120AAE9001B8120B929001B8120B52
:101A90007A9001B6EEF0A3EFF0A3120B9E000000C7
:101AA00000E49001BCF0A3F0A3F0A3F0900277E073
:101AB0007002A3E0701F900231F0122B865016EFD7
:101AC000122B5FE0FEA3E04E7003121DA0900231C6
:101AD000E004F080E5E4900231F0122B864003022E
:101AE00023CA744E2FF582E43401F583E0FF6022AF
:101AF000900231E0FE122AFDE0FCA3E04C7013904E
:101B0000011FE0FCA3E0FDEE122AFDECF0A3EDF0D6
:101B10008024EF7021122B9F900231E0122ADBC348
:101B20009496E5F09400500E122AF8E4F0A3F01217
:101B30002B52E4F0A3F0122AF8E0FCA3E04C70036F
:101B40000223C1122B9F75F002EF122ADED39440BC
:101B5000E5F0941F50030223C1900231E0122AFDE8
:101B6000E0FCA3E090011F122BA54019EF122AFD03
:101B7000E0FCA3E0C39BFDEC9AFCEF122B23ECF0FE
:101B8000A3EDF0800B900231E0122B23E4F0A3F0E0
:101B9000900231E0FF122B23E0FCA3E0D3940AEC87
:101BA0009400403D122B52E0FEA3E0C39428EE9433
:101BB00023502E900231E0FB249DF582E43402F59F
:101BC00083E075F012A4FFAEF0EB122B23E0FCA330
:101BD000E0FD120859900231E0122B53EEF0A3EF12
:101BE000F0900231E004F00222BA22C0E0C0F0C05E
:101BF00083C082C0D0E8C0E0D2AFD3900278E09436
:101C000000900277E0940040031236C3D390027C28
:101C1000E0940190027BE0940040051236C38002FC
:101C2000D28AD390027AE09400900279E094004046
:101C3000031236C31236E250031236CAD390028220
:101C4000E09400900281E0940040031236C3D390E8
:101C50000286E09400900285E0940040031236C3AF
:101C6000D390028AE09400900289E094004003122D
:101C700036C3D39001DFE094009001DEE094004091
:101C8000031236C3D390027EE0940090027DE0946C
:101C90000040031236C3D390028EE0940090028D70
:101CA000E0940040031236C31236F050031236CAD5
:101CB000D3900284E09400900283E09400400312E9
:101CC00036C3D3900288E09400900287E0940040ED
:101CD000031236C3D390028CE0940090028BE09400
:101CE0000040031236C3D3900280E0940090027F3C
:101CF000E0940040031236C3D39001E1E0940090D9
:101D000001E0E0940040031236C31236FE50031285
:101D100036CAD39001C1E094009001C0E094004025
:101D2000031236C3D39001C3E094009001C2E09443
:101D30000040031236C3D390018EE0940190018DD0
:101D4000E0940040031236C3D39001E3E094009086
:101D500001E2E0940040031236C3D3900190E09476
:101D60000190018FE0940040031236C312370C50EB
:101D7000031236CA12371A50031236CA12372850C5
:101D8000031236CA12373650031236CAD3900139BD
:101D9000E09400900138E0940040031236C3D0E094
:101DA000F8D0D0D082D083D0F0D0E0327A00790061
:101DB0007DFF1226EA7A0179007DF61226EA7B0180
:101DC0007A0279767D1A7C00123D2E902DE0E49304
:101DD000900001F09000047411F0A37422F0A37439
:101DE00033F0902DE2E493900012F0902DE3E49311
:101DF000900014F09000FB7401F090004A7411F010
:101E00009000F114F0900024F0A37420F07B017A8C
:101E100000793E900104120BE47A00794290010AA5
:101E2000120BE47A007946900107120BE47A0079EC
:101E30003290010D120BE47A00793A900110120BE6
:101E4000E47A007936900113120BE47A00796090FD
:101E50000121120BE47A0079809001D4120BE47A0C
:101E600000790A90014B120BE47A00791B9001482B
:101E7000120BE47A00792A900116120BE47A0079A9
:101E800026900119120BE47A00792E90011C120B96
:101E9000E4900116120BDBE475F0C81209BC900146
:101EA00019120BDBE475F0641209BC90011C120BD3
:101EB000DBE475F0961209BC7536007537C87522DB
:101EC00000752396900116123D5975F0C81209DB72
:101ED000900119123D5975F0641209DB90011C1232
:101EE0003D5975F0961209DB7538007539C87524AF
:101EF000007525969000207410F09002777407F01A
:101F0000A374D0F0E4900276F0227B017C00123DB5
:101F10002E22758D20438D20538D7FE4F5B275B64A
:101F2000FF75B7FF75B2A243B20153A8FB538B7F75
:101F3000758B10438B08E58B20E7030080F8538BEB
:101F40007F758B11438B08E58B20E7030080F890A9
:101F5000029BE5B5F0A3E5B4F0758B01E4F5B27F23
:101F600002FE121FDC123CAEE4F58D123D744E7081
:101F700010123D6BFD90011FE5F0F0A3EDF002277C
:101F8000DE123D6BFDC3EF9DFFEE95F0FE123D8B23
:101F9000D3EF940AEE648094804024123D6BFFC31B
:101FA000900120E09F90011FE095F05006E475F04D
:101FB00001800790011F74FFF5F01208F6803F12B0
:101FC0003D747C007D03120BEDECC0E0EDC0E0EE53
:101FD000C0E0EFC0E0123D6BFFAEF0E4FCFDD0E0EE
:101FE000FBD0E0FAD0E0F9D0E0F8120A08E47B0474
:101FF000FAF9F8120AAE90011FEEF0A3EFF090018B
:102000001FE0FFA3E09001F4CFF0A3EFF0900120D8
:10201000E025E0FF90011FE033FE7C007D0A1208FE
:102020006B9001CCEEF0A3EFF09001D0E07002A332
:10203000E0700F9001CCE0FFA3E09001D0CFF0A3BF
:10204000EFF0123D747C007D16120BEDE47B64FA18
:10205000F9F8120AAE9001CEEEF0A3EFF09001D2A3
:10206000E07002A3E0700F9001CEE0FFA3E09001CA
:10207000D2CFF0A3EFF022900231EFF01219F91253
:10208000193CFFC39404EE9400502A900231E012F0
:102090001944FD121A03C083C082900231E0FFD0C0
:1020A00082D083121B49ECF0A3EDF0EF1219F91264
:1020B0001A850228FD9002367401F0900236E0FF86
:1020C000C3940474809480503A121A03C083C0826F
:1020D000900231E0FED082D083121B49E0FCA3E0E5
:1020E000FDEF25E025E0248DF582E43401F58375CC
:1020F000F002EE120BCFECF0A3EDF0900236E0040C
:10210000F080B8900231E0FF121944FDEF25E02481
:102110009DF582E43401F583ECF0A3EDF0900232FA
:10212000120B9E00000000E4900236F01219F51226
:10213000193CFF900236E0FDD3EF9DEE9400402D58
:10214000900232120B86900236E0121A04C083C04D
:1021500082900231E0D082D083121B49121ACC90B7
:102160000232120B92900236E004F080BF900232ED
:10217000120B7AECC0E0EDC0E0EEC0E0EFC0E01280
:1021800019F512193CFBEEFAE4F9F8D0E0FFD0E0C3
:10219000FED0E0FDD0E0FC120AAE900232120B92AB
:1021A000900232020B7A90023BEFF0902E22E0FF79
:1021B00090023FE4F0A3EFF0758A50902E22740154
:1021C000F090023BE01239177404F0A3E4F090029F
:1021D0003CF090023CE0FFC3940D74809480400377
:1021E000022AA2EFF87E02E4088006CEA2E713CE10
:1021F00013D8F8FF90023DEEF0A3EFF04E70079079
:10220000023DF0A304F0902E207401F0902E20E007
:1022100030E2F990023BE0FF902E0012391AE0FC08
:10222000A3E0D394FEEC9407404012393DE0FEA3B6
:10223000E0FF90023DE0FCA3E0FDEF2DFFEE3CFE51
:10224000C3EF94FFEE940790023BE075F002902EEE
:1022500010500B120BCFEC8DF01208F68054120BBD
:10226000CF7407F0A374FFF0804890023BE0FF12A8
:102270003917E0FCA3E0FD90023DE0FAA3E0FBD3B8
:10228000ED9BEC9A402112393DC083C082C3A3E08C
:102290009BFF0582D5820215831582E09AD082D0F9
:1022A00083F0A3EFF0800B90023BE0123917E4F0CB
:1022B000A3F0902E20E4F0F58D90023CE004F002B3
:1022C00029B290023FA3E0902E22F0758A1022904E
:1022D0000107120BDB900232E0FF75F002A4F582D9
:1022E00085F083120937FDEF25E024B2F582E4344E
:1022F00001F58322900107120BDBED75F002A4F5C6
:102300008285F083020937900232E0FF25E024AE97
:10231000F582E43401F58322900231E0FF25E024C8
:10232000E4F582E43401F58322EF25E024C8F58248
:10233000E43401F58322EF25E024C4F582E434017E
:10234000F5832225E024E8F582E43401F583229028
:102350000232E0FF24AAF582E43401F583229001E1
:102360000A120BDB900232E075F002A4F58285F0D0
:102370008322EF25E024ECF582E43401F583222565
:10238000E024C0F582E43401F58322900234E09425
:1023900014900233E0940022900232E024ACF582E3
:1023A000E43401F58322900231E0FFC3940274808B
:1023B000948022E0FEA3E0FFC39430EE9475229057
:1023C0000107020BDBFDE0FAA3E0FBD3ED9BEC9AE7
:1023D00022EF9409EE9400900232E022E0FEA3E0A6
:1023E000D39DEE95F022E0FEA3E0C39DEE95F02292
:1023F000900231121A8E4003022CEE3000429002FD
:1024000031E0121A5412193C4E9002316019E0FF6B
:1024100025E02436F8764E087620EF25E02422F8D1
:10242000761F0876408045E0FF25E02436F8760BDD
:102430000876B8EF25E02422F876090876C4802CC7
:10244000121AD712194D24C8FDE43CF8EF25E024F8
:1024500036C8F608EDF6121AD712194D2496FDE487
:102460003CF8EF25E02422C8F608EDF6121B0D1209
:102470001925120937FDEF25E024361219C4C3EDE2
:102480009FE5F09E5024900231E012196BE060311C
:10249000121B0D121925120937FDEF25E024221217
:1024A00019C4C3ED9FE5F09E4017900231121A1235
:1024B00012194D4C703A744E2F12196D7401F08040
:1024C0002F9000F1E064209002317009E0121A149C
:1024D0001219A6800CE0121A14F583E4F0A374C854
:1024E000F0900231121969E4F0EF121AB21219A633
:1024F000900231E012196BE06003121B1990014F3A
:10250000E0C454F0FF90014EE04F90004BF0229059
:102510000231EFF0E4900233F0900231E0FF9002DC
:1025200033E0C39F5076120C1AE4900232F0121A74
:102530001E5060123B8F900232E0FD121A7B12197E
:10254000CBED121A7BF583E0F8A3E0FFED75F00800
:10255000A4242CC8F608EFF6ED75F008A4FF242695
:10256000F9E4FAFBC0E0C0E0E9C0E074282FF9E428
:10257000900237120BE490023AE4F0A37406F0D014
:10258000E0F9D0E0FAD0E0FB123A25900232E00404
:10259000F0809B900233E004F0022CF9E4900232C8
:1025A000F0121A1E5056122E2F900232E0FD25E036
:1025B0002400F582E434011219CBED121B3F1219ED
:1025C0003CFFED121A7112194DFD123D187C007D71
:1025D0000512086B900232121A2BF583ECF0A3ED72
:1025E000F0EF121A7112193CFF900232E0121B3FF9
:1025F0001219CB900232E004F0022D81220000007B
:102600000200AB2274AA7583F5758255A5745575C1
:1026100083FA7582AAA574A57583F5758255A522DE
:1026200002030AB00BB60CFF090208FF0D770E0477
:1026300013071410108015001600019212071818C5
:102640000F040404010111120F1206080301029085
:102650000234EFF0E4F50CF50BF50AF509F50CF58D
:102660000BF50AF509F508121B355025900234E0E8
:102670001219B8E4FCFDE50C2FFFE50B3EFEED352D
:102680000AFDEC35098F0C8E0B8D0AF509050880C3
:10269000D6E47B03FAF9F8AF0CAE0BAD0AAC091225
:1026A0000AAE900234E0121A671219CBE4750CA836
:1026B000750B61F50AF509F508121B35507190028A
:1026C00034E0FD1219B8ED121A6712194DFD123DD2
:1026D00018D3EF940AEE9400900234E0FF40081201
:1026E0001A6712194D801175F008A42426F8E50820
:1026F00025E028F8E6FC08E6FDEF25E02471F582E8
:10270000E4340112193CFFC3ED9FFFEC9EFE3395AC
:10271000E0FDFCE50C2FFFE50B3EFEE50A3DFDE587
:10272000093C8F0C8E0B8D0AF5090508022E99E4E1
:102730007F607EEAFDFCAB0CAA0BA90AA809D312A4
:102740000B56400BE4750C60750BEAF50AF509AE03
:102750000BAF0C22123744123CE57A0179A11230FA
:10276000127A0179917D101230267A017981123026
:10277000127A01797D12301C7A01798512301C7A27
:1027800001794E7D021230267F03122CEFE4FFEF19
:10279000121A235049121943FD12191E121AE61279
:1027A0001943FD90010A121921121AE6900107122D
:1027B0001921121B2F90010D121921746175F0A8B7
:1027C0001209DB900113121921746175F0A8120926
:1027D000DB900110121921121B2F0F022F6F7B01AA
:1027E0007A0179AA7D2A7C00123D2EE490027DF0C8
:1027F000A3F0A3F0A3F07B017A0179507D14FC12C1
:102800003D2EE4900007F090004A7411F0A3F012FE
:102810001B1990028FE0700FC3900278E094F4903F
:102820000277E09401500A9002777401F0A374F4E7
:10283000F0227B017D047C00123D2E227B017D0471
:102840007C00123D2E227B017C00123D2E22900244
:1028500034E025E025E0243AF582E43402F58322D1
:10286000ED25E02479F582E43401F583E0FEA3E070
:1028700022F583ECF0EDA3F0900234E0FF25E02296
:1028800025E02479F582E43401F583EEF0A3EFF03E
:10289000222436F582E43402F583E0FCA3E02290A2
:1028A0000234E0FFC39402748094802225E025E086
:1028B000242CF582E43401F58322900234E0FD25D6
:1028C000E02225E02475F582E434012225E024810C
:1028D000F582E4340122EF25E02436F582E4340267
:1028E00022EF25E024F0F582E4340122F583E4931D
:1028F0002420F582E4342EF5832225E02434F58269
:10290000E4340122ED25E02471F582E4340122EF64
:10291000900806939008039322900234E004F0227A
:10292000F582E43402F583E0FF22C0E0C083C08278
:10293000C0D075D018D2AFE5DB30E422D207C20692
:10294000E5DB30E114123D44E0F5DFEF6407706928
:10295000D28A900007F00231BCC2050231BFE5DB2C
:1029600030E52C9000F0E064AA7017758A10F5DA53
:10297000C2AFF5B2F5A8F5A9F58B758E01758DC0BE
:1029800080FED204300604C2068054C2078050C2C2
:1029900006E5DB30E125E5DB30E044123D44E0F5BF
:1029A000DFEF24F9600C24FA60042402700BD208D3
:1029B0008007D28A900007E4F0802120050A780D74
:1029C000A6DFD205D2068017123D44E5DFF0EF64A2
:1029D00024700990027904F0A374F4F0780D067560
:1029E000DBFFD0D0D082D083D0E032E4FFFD900274
:1029F0007BE07004A3E064017011900007E06004C4
:102A0000D28AE4F0E490027BF0A3F090014EE06003
:102A10000E900024E064106006EF4420FF8004EF75
:102A20004410FF90014FE0600E900024E0641060BD
:102A300006EF4402FF8004EF4401FF90004AEFF0EC
:102A40009000FFE0FC6F605B90004AE0FFEC6FFEDF
:102A50009000FFEFF0208A1BD28A90027BE4F0A363
:102A60007403F090027CE024FFFB90027BE034FFD3
:102A70004B70F0900007E0700790004AE05E801312
:102A8000EEF4FF9000FFE05FFDEEFF90004AE05F94
:102A9000FFED4F900007F090027B7403F0A374E801
:102AA000F0C28A22900234E0C454F0245CF582E43F
:102AB0003402F58322EBC454F0245AF582E4340244
:102AC000F583E4F0A3F0900234E0FFC454F0245EF8
:102AD000F582E43402F583E4F0A3F0EFC454F0246B
:102AE00063F582E43402F58322900234E0FBC4549F
:102AF000F02456F582E43402F58322E0FDA3E09051
:102B00000235CDF0A3EDF0EFC454F02462F582E479
:102B10003402F58322900234E0C454F02460F5823C
:102B2000E43402F58322C454F02464F582E43402D0
:102B3000F58322900235E0FEA3E0FF22C454F02486
:102B40005AF582E43402F58322900237020B7A9020
:102B50000237020B869001647407F0A304F0A314FB
:102B6000F0A304F0123BCC7B017A0179717D047CE7
:102B700000123D2EE4900230F090023012396A507B
:102B800076123C8A900230E090080693FF123917C3
:102B9000E0FCA3E0C39405EC9400400F12393DE043
:102BA000FEA3E0D394F0EE94074017900230E0FFCC
:102BB00025E02464F582E43401F583E4F0A3F01207
:102BC0003C8A902E23E4F090023012391112392001
:102BD0002FFFEC3EFE90014B120BDB900230E075B4
:102BE000F002A4F58285F083EE8FF01209DB9002EB
:102BF00030E004F002335990001D7410F022900070
:102C000020E0642070037421F0900148120BDB1265
:102C1000090C641045F07003123B4C900001E06415
:102C2000AA7003123974900013E0FF7E00641070E4
:102C300002D203EF64204E7002C20312383720091B
:102C40000890001AE06410700D90001A7411F0C220
:102C500009E4900276F09000FBE06006E4F0900258
:102C600076F090018DE07004A3E06401600C9001A7
:102C70008FE07004A3E064017015E490018DF0A36F
:102C8000F0A3F0A3F09001E2F0A3F0900276F03010
:102C9000040CC2049002797401F0A374F4F022755C
:102CA000F00E120BCFE0FEA3E0FFE4FCFD90024526
:102CB000120B86120A23900242E075F01CA42275C2
:102CC000F00E020BCF75F01CA42400F582E4340250
:102CD000F5832224FCF582E43401F5832224F8F5FF
:102CE00082E43401F583222404F582E43402F5837E
:102CF00022120B9290024E020B7A900245020B7A3E
:102D0000ED75F005A424A2F582E4343DF583E49347
:102D100022EC75F00E020BCF75F01CA42401F58295
:102D2000E43402F583222403F582E43402F583229D
:102D300090024E020B922008030235A630000302D7
:102D400035A6C208E4900231F090023112396A507F
:102D50006BE0FE123913E0FCA3E0FDEE123952ECF9
:102D6000F0A3EDF0123C8A90023112391112392091
:102D70002FFFEC3EFE900231E0FD12395EEEF0A333
:102D8000EFF0ED12395EE0FEA3E0FF90014B120B75
:102D9000DB75F002EDA4F58285F083EE8FF0120969
:102DA000DBED123952E0FEA3E0FFED123913EEF035
:102DB000A3EFF0900231E004F0023529900279741B
:102DC00003F0A37420F022787FE4F6D8FD758139F2
:102DD0000235F10200000237C0E493A3F8E493A3A4
:102DE0004003F68001F208DFF48029E493A3F8544D
:102DF00007240CC8C333C4540F4420C8834004F4D0
:102E000056800146F6DFE4800B01020408102040E2
:102E100080903C02E47E019360BCA3FF543F30E508
:102E200009541FFEE493A360010ECF54C025E06057
:102E3000A840B8E493A3FAE493A3F8E493A3C8C525
:102E400082C8CAC583CAF0A3C8C582C8CAC583CA16
:102E5000DFE9DEE780BE208A030236C2D390027823
:102E6000E094E8900277E09403507790018DE07051
:102E700002A3E0706D90018FE07002A3E07063F533
:102E8000B2758D20438D20758D8043A808D2AFF593
:102E90008B900138E0FEA3E0FF4E6005758E5080F8
:102EA00003758EFE20042F20072CE5DB54047026CA
:102EB000758A84200720E5DB5404701AF58675872F
:102EC00003000000758601EF4E60047F5080027F92
:102ED000FE7E00121FDC758B01758A1053A8F71255
:102EE0003CAE2274FFF5F00208F6E475F00102082A
:102EF000F6EE8FF00208F6EF2401FDE43EFCD3E08D
:102F00009D22C3900159E094BC900158E0940222A4
:102F1000C3900163E094BC900162E0940222C390EC
:102F200001BFE094649001BEE0940022C39002656A
:102F3000E094B8900264E0940B22C390025FE094A6
:102F4000F490025EE0940122C3900275E094B89080
:102F50000274E0940B22C390026FE094F490026E2E
:102F6000E09401227B017A0179F87D387C00123DE2
:102F70002EE4FDEDC39402748094805062E49002CC
:102F800030F0900230E0FFC3940274809480504B84
:102F90001234E0FEED75F01CA4123506EF1234F287
:102FA000EEF01234E004F87E007401088005C333AB
:102FB000CE33CED8F9FFED75F01CA41234C7C08310
:102FC000C082900230E0D082D08312349FEEF0A312
:102FD000EFF0900230E004F00237620D0237532226
:102FE00053A87F123CCA12258C123C3612080843A3
:102FF000A880E4F58D1233DE900276E0146016149A
:10300000601E24FE603E240470E812333590027680
:103010007401F080DD122F349002767402F080D2B9
:103020001239CF900020E0FF64206008EF64216037
:1030300003123636900025E0641070B69002767464
:1030400004F080AE123AC0900025E0641060A390B6
:1030500002767401F0809B900290E014601B146073
:103060003D2402705430030D9002907401F0D2029E
:10307000D200123D61C201804090028DE07002A337
:10308000E07002C2022003319002907402F0D2017B
:10309000C202C20090028DF0A37458F0801B90020F
:1030A0008DE07002A3E07011900290200303F08085
:1030B000067401F0123D61C20120010330020A9042
:1030C0000025E064106002D20922E4FEEEC39407FA
:1030D00074809480502FEE75F003A4241BF582E4D5
:1030E000342EF583E5822FF582E43583F583E4936E
:1030F000FDEE75F003A4241AF582E4342E1230CCD0
:10310000EDF00E80C7EFFD7C007019EF25E0246420
:10311000F582E43401F583E0FAA3E04A7006902ECC
:10312000217412F0ED64014C7006902E217412F09F
:1031300022E0FB90080693902E1075F002020BCF50
:10314000E0FEA3E0FF7C007D0A120859EB25E02495
:1031500064F582E43401F583E0FCA3E02275F0021B
:10316000EF902E10020BCFEF25E0248DF582E43492
:10317000012225E02436F582E43402F5832225E09D
:103180002432F582E43402F58322E0FFC394027412
:10319000809480229002307408F0A3E4F0A3743F7E
:1031A000F0A374DFF0E4FDFCF9123D520090023010
:1031B000E0FEA3E02DF582EE3CF583E493FF69F990
:1031C0000DBD00010CBC37E5BDDFE2900232E0FE30
:1031D000A3E0F5828E83E493FFE96F70089000010D
:1031E0007402F08005E4900001F0123D5200227F4D
:1031F00001122CEF1221ECE4900230F09002301218
:103200001A21503B123A76900230E0FF122857EE16
:10321000FCEFFD900104120BDB900230E0FF12196D
:1032200025121AE61212E0900230E0FF122BD09025
:103230000230E0FF121B56900230E004F080BD1215
:1032400031CB02351690023C120BE4900237120B80
:10325000DB90023F120BE490023AE07002A3E060C0
:103260003490023F120BDB12082EFF90023C120B2F
:10327000DBEF12084790023DE475F0011208F6906A
:103280000240E475F0011208F690023A74FFF5F07E
:103290001208F680C222EF25E02471F582E43401A1
:1032A000123936243CFDEC34F6FCEF25E02481F5A0
:1032B00082E43401F583E0FAA3E0C39DEA9C501652
:1032C0001239471239364C7016123947F58374019A
:1032D000F0A374F4F022123947F583E4F0A3F0224E
:1032E000900025E06410703FF5B2758D20438D206D
:1032F000538D7F53A8F7F58BE5DB5404701320073B
:1033000010F58AF586758703000000758601758AB9
:1033100010758B0190028F7401F09002797403F0A4
:10332000A37420F0123CAE22C2D5E830E70FB2D52C
:10333000E4C39BFBE49AFAE499F9E498F8EC30E7EB
:1033400017B2D5123B3E120AAEE4C39BFBE49AFAD5
:10335000E499F9E498F88003120AAE30D50DE4C37D
:103360009FFFE49EFEE49DFDE49CFC22E49002307D
:10337000F0A3F0123D5200122DE475EA81E4F5F657
:10338000F5F475F308F5F275EB0700E5EC30E7FBB3
:10339000AFF3EFFEADF2EDFF900148120BDBEE8FC5
:1033A000F01209BCE4F5EC75EB30123D520022EF4F
:1033B000FB121A7112193CFF121B241219CBEB12CB
:1033C0001A7B12194DFDECC0E0EDC0E0121B241277
:1033D000193CFFE4FCFD900245120B92EB90024970
:1033E000F0D0E0FDD0E0FC7F01020FA4E4FFEFC3CA
:1033F000940D748094805021EF25E02401F582E43F
:10340000342EF583E493FEEF25E02400F582E434C6
:103410002E1230CCEEF00F80D5902F56E0902E2B50
:10342000F022C10742029D0505C1084102910041F9
:10343000029000C103C101C100C102C105010D001C
:10344000C104C1064201F600004100FF11C1094359
:10345000029801029B00E4F5DA75DA4043DA203085
:10346000880875D74075D640800675D74275D64214
:103470005392FE75DA5843A80275B80275F8022215
:10348000900234EFF0E075F010A42456F974023580
:10349000F0FA7B017D107C00123D2E900234E01288
:1034A0003306740BF0A374B8F02290023AEFF012D6
:1034B0003CFF90023AE0FF1238AA90023AE09008EE
:1034C0000693FF12298690023AE0FF023D97E5B28B
:1034D00054016006E5A85410700F75B29275B6F9E4
:1034E000E4F5B743B20143A81022758A10538AEF5E
:1034F000758601758F05E4F5AB75AC0F75913E755A
:103500009201D28A227B017A0179757D047C0012B6
:103510003D2E7B017A0179797D047C00023D2EEFFE
:10352000F87401088002C333D8FC42AB1230EFF4C8
:10353000529152935391DF22D3EF9DEE9C4007EFBF
:103540009DFFEE9CFE22C3ED9FFFEC9EFE22ED4C04
:103550006011E41208470429F9E43AFAED1D70EE0F
:103560001C80EB22780DE6FF2400F582E43400F5A0
:103570008322758A10538AEF22120BDB900002E43B
:103580002290028D04F0A37458F022900298120B3E
:10359000DB02090C90011FE0FEA3E0FF2200960071
:1035A000960701F4009600960701F4EE30E707C392
:1035B000E49FFFE49EFE221230EF42914288439145
:1035C000202204001E00190100190019000000004B
:1035D00000000000000000000000000000000000EB
:1035E00000000000000000000000000000000000DB
:1035F00000000000000000000000000000000000CB
:1036000000000000000000000000000000000000BA
:1037F000000000000000000000000000000000A623
:1038000000000000000000000000000000000000B8
:1038100000000000000000000000000000000000A8
:00000001FF
